{
  "address": "0x889D9A5AF83525a2275e41464FAECcCb3337fF60",
  "abi": [
    {
      "inputs": [
        {
          "internalType": "string",
          "name": "_tokenURI",
          "type": "string"
        },
        {
          "internalType": "uint256",
          "name": "_mintPrice",
          "type": "uint256"
        }
      ],
      "stateMutability": "nonpayable",
      "type": "constructor"
    },
    {
      "inputs": [],
      "name": "GameCoins_AddressIsNotAnOwner",
      "type": "error"
    },
    {
      "inputs": [],
      "name": "GameCoins_AddressNotAllowedThisFunction",
      "type": "error"
    },
    {
      "inputs": [],
      "name": "GameCoins_AlreadyOwnsACoin",
      "type": "error"
    },
    {
      "inputs": [],
      "name": "GameCoins_ContractAlreadyConnected",
      "type": "error"
    },
    {
      "inputs": [],
      "name": "GameCoins_NotEnoughValueSent",
      "type": "error"
    },
    {
      "inputs": [],
      "name": "GameCoins_TokenIdDoesntExist",
      "type": "error"
    },
    {
      "anonymous": false,
      "inputs": [
        {
          "indexed": true,
          "internalType": "address",
          "name": "owner",
          "type": "address"
        },
        {
          "indexed": true,
          "internalType": "address",
          "name": "approved",
          "type": "address"
        },
        {
          "indexed": true,
          "internalType": "uint256",
          "name": "tokenId",
          "type": "uint256"
        }
      ],
      "name": "Approval",
      "type": "event"
    },
    {
      "anonymous": false,
      "inputs": [
        {
          "indexed": true,
          "internalType": "address",
          "name": "owner",
          "type": "address"
        },
        {
          "indexed": true,
          "internalType": "address",
          "name": "operator",
          "type": "address"
        },
        {
          "indexed": false,
          "internalType": "bool",
          "name": "approved",
          "type": "bool"
        }
      ],
      "name": "ApprovalForAll",
      "type": "event"
    },
    {
      "anonymous": false,
      "inputs": [
        {
          "indexed": true,
          "internalType": "address",
          "name": "previousOwner",
          "type": "address"
        },
        {
          "indexed": true,
          "internalType": "address",
          "name": "newOwner",
          "type": "address"
        }
      ],
      "name": "OwnershipTransferred",
      "type": "event"
    },
    {
      "anonymous": false,
      "inputs": [
        {
          "indexed": true,
          "internalType": "address",
          "name": "from",
          "type": "address"
        },
        {
          "indexed": true,
          "internalType": "address",
          "name": "to",
          "type": "address"
        },
        {
          "indexed": true,
          "internalType": "uint256",
          "name": "tokenId",
          "type": "uint256"
        }
      ],
      "name": "Transfer",
      "type": "event"
    },
    {
      "inputs": [
        {
          "internalType": "address",
          "name": "_contract",
          "type": "address"
        }
      ],
      "name": "addContract",
      "outputs": [],
      "stateMutability": "nonpayable",
      "type": "function"
    },
    {
      "inputs": [
        {
          "internalType": "uint256",
          "name": "_tokenId",
          "type": "uint256"
        }
      ],
      "name": "addLoss",
      "outputs": [],
      "stateMutability": "nonpayable",
      "type": "function"
    },
    {
      "inputs": [
        {
          "internalType": "uint256",
          "name": "_tokenId",
          "type": "uint256"
        }
      ],
      "name": "addWin",
      "outputs": [],
      "stateMutability": "nonpayable",
      "type": "function"
    },
    {
      "inputs": [
        {
          "internalType": "uint256",
          "name": "",
          "type": "uint256"
        }
      ],
      "name": "addressAttributes",
      "outputs": [
        {
          "internalType": "uint256",
          "name": "_wins",
          "type": "uint256"
        },
        {
          "internalType": "uint256",
          "name": "_losses",
          "type": "uint256"
        },
        {
          "internalType": "int256",
          "name": "_amountWon",
          "type": "int256"
        }
      ],
      "stateMutability": "view",
      "type": "function"
    },
    {
      "inputs": [
        {
          "internalType": "address",
          "name": "to",
          "type": "address"
        },
        {
          "internalType": "uint256",
          "name": "tokenId",
          "type": "uint256"
        }
      ],
      "name": "approve",
      "outputs": [],
      "stateMutability": "nonpayable",
      "type": "function"
    },
    {
      "inputs": [
        {
          "internalType": "address",
          "name": "owner",
          "type": "address"
        }
      ],
      "name": "balanceOf",
      "outputs": [
        {
          "internalType": "uint256",
          "name": "",
          "type": "uint256"
        }
      ],
      "stateMutability": "view",
      "type": "function"
    },
    {
      "inputs": [
        {
          "internalType": "uint256",
          "name": "_tokenId",
          "type": "uint256"
        },
        {
          "internalType": "int256",
          "name": "_amount",
          "type": "int256"
        }
      ],
      "name": "changeAmountWon",
      "outputs": [],
      "stateMutability": "nonpayable",
      "type": "function"
    },
    {
      "inputs": [
        {
          "internalType": "uint256",
          "name": "",
          "type": "uint256"
        }
      ],
      "name": "connectedContracts",
      "outputs": [
        {
          "internalType": "address",
          "name": "",
          "type": "address"
        }
      ],
      "stateMutability": "view",
      "type": "function"
    },
    {
      "inputs": [
        {
          "internalType": "uint256",
          "name": "_tokenId",
          "type": "uint256"
        }
      ],
      "name": "getAmountWon",
      "outputs": [
        {
          "internalType": "int256",
          "name": "",
          "type": "int256"
        }
      ],
      "stateMutability": "view",
      "type": "function"
    },
    {
      "inputs": [
        {
          "internalType": "uint256",
          "name": "tokenId",
          "type": "uint256"
        }
      ],
      "name": "getApproved",
      "outputs": [
        {
          "internalType": "address",
          "name": "",
          "type": "address"
        }
      ],
      "stateMutability": "view",
      "type": "function"
    },
    {
      "inputs": [
        {
          "internalType": "uint256",
          "name": "_tokenId",
          "type": "uint256"
        }
      ],
      "name": "getLosses",
      "outputs": [
        {
          "internalType": "uint256",
          "name": "",
          "type": "uint256"
        }
      ],
      "stateMutability": "view",
      "type": "function"
    },
    {
      "inputs": [
        {
          "internalType": "address",
          "name": "_ownerAddress",
          "type": "address"
        }
      ],
      "name": "getOwnersToken",
      "outputs": [
        {
          "internalType": "uint256",
          "name": "",
          "type": "uint256"
        }
      ],
      "stateMutability": "view",
      "type": "function"
    },
    {
      "inputs": [],
      "name": "getTokenCounter",
      "outputs": [
        {
          "internalType": "uint256",
          "name": "",
          "type": "uint256"
        }
      ],
      "stateMutability": "view",
      "type": "function"
    },
    {
      "inputs": [
        {
          "internalType": "uint256",
          "name": "_tokenId",
          "type": "uint256"
        }
      ],
      "name": "getWins",
      "outputs": [
        {
          "internalType": "uint256",
          "name": "",
          "type": "uint256"
        }
      ],
      "stateMutability": "view",
      "type": "function"
    },
    {
      "inputs": [
        {
          "internalType": "address",
          "name": "owner",
          "type": "address"
        },
        {
          "internalType": "address",
          "name": "operator",
          "type": "address"
        }
      ],
      "name": "isApprovedForAll",
      "outputs": [
        {
          "internalType": "bool",
          "name": "",
          "type": "bool"
        }
      ],
      "stateMutability": "view",
      "type": "function"
    },
    {
      "inputs": [
        {
          "internalType": "address",
          "name": "_address",
          "type": "address"
        }
      ],
      "name": "isContractConnected",
      "outputs": [
        {
          "internalType": "bool",
          "name": "",
          "type": "bool"
        }
      ],
      "stateMutability": "view",
      "type": "function"
    },
    {
      "inputs": [],
      "name": "mintPrice",
      "outputs": [
        {
          "internalType": "uint256",
          "name": "",
          "type": "uint256"
        }
      ],
      "stateMutability": "view",
      "type": "function"
    },
    {
      "inputs": [],
      "name": "name",
      "outputs": [
        {
          "internalType": "string",
          "name": "",
          "type": "string"
        }
      ],
      "stateMutability": "view",
      "type": "function"
    },
    {
      "inputs": [],
      "name": "nftMint",
      "outputs": [],
      "stateMutability": "payable",
      "type": "function"
    },
    {
      "inputs": [],
      "name": "owner",
      "outputs": [
        {
          "internalType": "address",
          "name": "",
          "type": "address"
        }
      ],
      "stateMutability": "view",
      "type": "function"
    },
    {
      "inputs": [
        {
          "internalType": "uint256",
          "name": "tokenId",
          "type": "uint256"
        }
      ],
      "name": "ownerOf",
      "outputs": [
        {
          "internalType": "address",
          "name": "",
          "type": "address"
        }
      ],
      "stateMutability": "view",
      "type": "function"
    },
    {
      "inputs": [],
      "name": "renounceOwnership",
      "outputs": [],
      "stateMutability": "nonpayable",
      "type": "function"
    },
    {
      "inputs": [
        {
          "internalType": "address",
          "name": "from",
          "type": "address"
        },
        {
          "internalType": "address",
          "name": "to",
          "type": "address"
        },
        {
          "internalType": "uint256",
          "name": "tokenId",
          "type": "uint256"
        }
      ],
      "name": "safeTransferFrom",
      "outputs": [],
      "stateMutability": "nonpayable",
      "type": "function"
    },
    {
      "inputs": [
        {
          "internalType": "address",
          "name": "from",
          "type": "address"
        },
        {
          "internalType": "address",
          "name": "to",
          "type": "address"
        },
        {
          "internalType": "uint256",
          "name": "tokenId",
          "type": "uint256"
        },
        {
          "internalType": "bytes",
          "name": "data",
          "type": "bytes"
        }
      ],
      "name": "safeTransferFrom",
      "outputs": [],
      "stateMutability": "nonpayable",
      "type": "function"
    },
    {
      "inputs": [
        {
          "internalType": "uint256",
          "name": "_tokenId",
          "type": "uint256"
        }
      ],
      "name": "seeAttributes",
      "outputs": [
        {
          "components": [
            {
              "internalType": "uint256",
              "name": "_wins",
              "type": "uint256"
            },
            {
              "internalType": "uint256",
              "name": "_losses",
              "type": "uint256"
            },
            {
              "internalType": "int256",
              "name": "_amountWon",
              "type": "int256"
            }
          ],
          "internalType": "struct GameCoins.coinAttributes",
          "name": "",
          "type": "tuple"
        }
      ],
      "stateMutability": "view",
      "type": "function"
    },
    {
      "inputs": [
        {
          "internalType": "address",
          "name": "operator",
          "type": "address"
        },
        {
          "internalType": "bool",
          "name": "approved",
          "type": "bool"
        }
      ],
      "name": "setApprovalForAll",
      "outputs": [],
      "stateMutability": "nonpayable",
      "type": "function"
    },
    {
      "inputs": [
        {
          "internalType": "bytes4",
          "name": "interfaceId",
          "type": "bytes4"
        }
      ],
      "name": "supportsInterface",
      "outputs": [
        {
          "internalType": "bool",
          "name": "",
          "type": "bool"
        }
      ],
      "stateMutability": "view",
      "type": "function"
    },
    {
      "inputs": [],
      "name": "symbol",
      "outputs": [
        {
          "internalType": "string",
          "name": "",
          "type": "string"
        }
      ],
      "stateMutability": "view",
      "type": "function"
    },
    {
      "inputs": [
        {
          "internalType": "uint256",
          "name": "tokenId",
          "type": "uint256"
        }
      ],
      "name": "tokenURI",
      "outputs": [
        {
          "internalType": "string",
          "name": "",
          "type": "string"
        }
      ],
      "stateMutability": "view",
      "type": "function"
    },
    {
      "inputs": [
        {
          "internalType": "address",
          "name": "from",
          "type": "address"
        },
        {
          "internalType": "address",
          "name": "to",
          "type": "address"
        },
        {
          "internalType": "uint256",
          "name": "tokenId",
          "type": "uint256"
        }
      ],
      "name": "transferFrom",
      "outputs": [],
      "stateMutability": "nonpayable",
      "type": "function"
    },
    {
      "inputs": [
        {
          "internalType": "address",
          "name": "newOwner",
          "type": "address"
        }
      ],
      "name": "transferOwnership",
      "outputs": [],
      "stateMutability": "nonpayable",
      "type": "function"
    }
  ],
  "transactionHash": "0x8358ed7478bd04529c06d9481882c933b8d8377227ea6ba53ec1a55a890207f4",
  "args": [
    "",
    "10000000000000000000"
  ],
  "numDeployments": 1,
  "solcInputHash": "fe9121ebce97acdf99391599a040de4c",
  "bytecode": "0x60806040523480156200001157600080fd5b5060405162003c9338038062003c938339818101604052810190620000379190620004b6565b6040518060400160405280600981526020017f47414d45434f494e5300000000000000000000000000000000000000000000008152506040518060400160405280600381526020017f474d4300000000000000000000000000000000000000000000000000000000008152508160009080519060200190620000bb9291906200022e565b508060019080519060200190620000d49291906200022e565b505050620000f7620000eb6200016060201b60201c565b6200016860201b60201c565b81600890805190602001906200010f9291906200022e565b5033600a60006101000a81548173ffffffffffffffffffffffffffffffffffffffff021916908373ffffffffffffffffffffffffffffffffffffffff16021790555080600981905550505062000581565b600033905090565b6000600660009054906101000a900473ffffffffffffffffffffffffffffffffffffffff16905081600660006101000a81548173ffffffffffffffffffffffffffffffffffffffff021916908373ffffffffffffffffffffffffffffffffffffffff1602179055508173ffffffffffffffffffffffffffffffffffffffff168173ffffffffffffffffffffffffffffffffffffffff167f8be0079c531659141344cd1fd0a4f28419497f9722a3daafe3b4186f6b6457e060405160405180910390a35050565b8280546200023c906200054b565b90600052602060002090601f016020900481019282620002605760008555620002ac565b82601f106200027b57805160ff1916838001178555620002ac565b82800160010185558215620002ac579182015b82811115620002ab5782518255916020019190600101906200028e565b5b509050620002bb9190620002bf565b5090565b5b80821115620002da576000816000905550600101620002c0565b5090565b6000604051905090565b600080fd5b600080fd5b600080fd5b600080fd5b6000601f19601f8301169050919050565b7f4e487b7100000000000000000000000000000000000000000000000000000000600052604160045260246000fd5b6200034782620002fc565b810181811067ffffffffffffffff821117156200036957620003686200030d565b5b80604052505050565b60006200037e620002de565b90506200038c82826200033c565b919050565b600067ffffffffffffffff821115620003af57620003ae6200030d565b5b620003ba82620002fc565b9050602081019050919050565b60005b83811015620003e7578082015181840152602081019050620003ca565b83811115620003f7576000848401525b50505050565b6000620004146200040e8462000391565b62000372565b905082815260208101848484011115620004335762000432620002f7565b5b62000440848285620003c7565b509392505050565b600082601f83011262000460576200045f620002f2565b5b815162000472848260208601620003fd565b91505092915050565b6000819050919050565b62000490816200047b565b81146200049c57600080fd5b50565b600081519050620004b08162000485565b92915050565b60008060408385031215620004d057620004cf620002e8565b5b600083015167ffffffffffffffff811115620004f157620004f0620002ed565b5b620004ff8582860162000448565b925050602062000512858286016200049f565b9150509250929050565b7f4e487b7100000000000000000000000000000000000000000000000000000000600052602260045260246000fd5b600060028204905060018216806200056457607f821691505b602082108114156200057b576200057a6200051c565b5b50919050565b61370280620005916000396000f3fe6080604052600436106101d85760003560e01c80636d91bfcc1161010257806395d89b4111610095578063c87b56dd11610064578063c87b56dd146106e7578063e985e9c514610724578063ebb7953214610761578063f2fde38b1461079e576101d8565b806395d89b411461062d578063a22cb46514610658578063aade6e4214610681578063b88d4fde146106be576101d8565b8063715018a6116100d1578063715018a6146105a4578063719414b4146105bb5780637edd632d146105c55780638da5cb5b14610602576101d8565b80636d91bfcc146104c25780636e02007d146104ff57806370a082311461052a57806370f4501d14610567576101d8565b806323b872dd1161017a57806357e010c91161014957806357e010c9146103f25780635f539d69146104315780636352211e1461045a5780636817c76c14610497576101d8565b806323b872dd1461033a5780632fd333c41461036357806342842e0e146103a05780634fd10e51146103c9576101d8565b8063095ea7b3116101b6578063095ea7b3146102825780630a11da1e146102ab5780631003c1b5146102d45780631bbc5c0b146102fd576101d8565b806301ffc9a7146101dd57806306fdde031461021a578063081812fc14610245575b600080fd5b3480156101e957600080fd5b5061020460048036038101906101ff91906126a2565b6107c7565b60405161021191906126ea565b60405180910390f35b34801561022657600080fd5b5061022f6108a9565b60405161023c919061279e565b60405180910390f35b34801561025157600080fd5b5061026c600480360381019061026791906127f6565b61093b565b6040516102799190612864565b60405180910390f35b34801561028e57600080fd5b506102a960048036038101906102a491906128ab565b610981565b005b3480156102b757600080fd5b506102d260048036038101906102cd91906127f6565b610a99565b005b3480156102e057600080fd5b506102fb60048036038101906102f691906127f6565b610ba2565b005b34801561030957600080fd5b50610324600480360381019061031f91906127f6565b610cab565b6040516103319190612955565b60405180910390f35b34801561034657600080fd5b50610361600480360381019061035c9190612970565b610d39565b005b34801561036f57600080fd5b5061038a600480360381019061038591906127f6565b610d99565b60405161039791906129d2565b60405180910390f35b3480156103ac57600080fd5b506103c760048036038101906103c29190612970565b610dfc565b005b3480156103d557600080fd5b506103f060048036038101906103eb9190612a19565b610e1c565b005b3480156103fe57600080fd5b50610419600480360381019061041491906127f6565b610f25565b60405161042893929190612a68565b60405180910390f35b34801561043d57600080fd5b5061045860048036038101906104539190612a9f565b610f4f565b005b34801561046657600080fd5b50610481600480360381019061047c91906127f6565b611104565b60405161048e9190612864565b60405180910390f35b3480156104a357600080fd5b506104ac61118b565b6040516104b991906129d2565b60405180910390f35b3480156104ce57600080fd5b506104e960048036038101906104e491906127f6565b611191565b6040516104f69190612864565b60405180910390f35b34801561050b57600080fd5b506105146111d0565b60405161052191906129d2565b60405180910390f35b34801561053657600080fd5b50610551600480360381019061054c9190612a9f565b6111e1565b60405161055e91906129d2565b60405180910390f35b34801561057357600080fd5b5061058e600480360381019061058991906127f6565b611299565b60405161059b9190612acc565b60405180910390f35b3480156105b057600080fd5b506105b96112fc565b005b6105c3611310565b005b3480156105d157600080fd5b506105ec60048036038101906105e79190612a9f565b61146b565b6040516105f991906129d2565b60405180910390f35b34801561060e57600080fd5b50610617611521565b6040516106249190612864565b60405180910390f35b34801561063957600080fd5b5061064261154b565b60405161064f919061279e565b60405180910390f35b34801561066457600080fd5b5061067f600480360381019061067a9190612b13565b6115dd565b005b34801561068d57600080fd5b506106a860048036038101906106a391906127f6565b6115f3565b6040516106b591906129d2565b60405180910390f35b3480156106ca57600080fd5b506106e560048036038101906106e09190612c88565b611656565b005b3480156106f357600080fd5b5061070e600480360381019061070991906127f6565b6116b8565b60405161071b919061279e565b60405180910390f35b34801561073057600080fd5b5061074b60048036038101906107469190612d0b565b61174c565b60405161075891906126ea565b60405180910390f35b34801561076d57600080fd5b5061078860048036038101906107839190612a9f565b6117e0565b60405161079591906126ea565b60405180910390f35b3480156107aa57600080fd5b506107c560048036038101906107c09190612a9f565b61188f565b005b60007f80ac58cd000000000000000000000000000000000000000000000000000000007bffffffffffffffffffffffffffffffffffffffffffffffffffffffff1916827bffffffffffffffffffffffffffffffffffffffffffffffffffffffff1916148061089257507f5b5e139f000000000000000000000000000000000000000000000000000000007bffffffffffffffffffffffffffffffffffffffffffffffffffffffff1916827bffffffffffffffffffffffffffffffffffffffffffffffffffffffff1916145b806108a257506108a182611913565b5b9050919050565b6060600080546108b890612d7a565b80601f01602080910402602001604051908101604052809291908181526020018280546108e490612d7a565b80156109315780601f1061090657610100808354040283529160200191610931565b820191906000526020600020905b81548152906001019060200180831161091457829003601f168201915b5050505050905090565b60006109468261197d565b6004600083815260200190815260200160002060009054906101000a900473ffffffffffffffffffffffffffffffffffffffff169050919050565b600061098c82611104565b90508073ffffffffffffffffffffffffffffffffffffffff168373ffffffffffffffffffffffffffffffffffffffff1614156109fd576040517f08c379a00000000000000000000000000000000000000000000000000000000081526004016109f490612e1e565b60405180910390fd5b8073ffffffffffffffffffffffffffffffffffffffff16610a1c6119c8565b73ffffffffffffffffffffffffffffffffffffffff161480610a4b5750610a4a81610a456119c8565b61174c565b5b610a8a576040517f08c379a0000000000000000000000000000000000000000000000000000000008152600401610a8190612eb0565b60405180910390fd5b610a9483836119d0565b505050565b6000805b600c80549050811015610b38573373ffffffffffffffffffffffffffffffffffffffff16600c8281548110610ad557610ad4612ed0565b5b9060005260206000200160009054906101000a900473ffffffffffffffffffffffffffffffffffffffff1673ffffffffffffffffffffffffffffffffffffffff161415610b255760019150610b38565b8080610b3090612f2e565b915050610a9d565b5080610b70576040517f51c8a88800000000000000000000000000000000000000000000000000000000815260040160405180910390fd5b6001600b60008481526020019081526020016000206001016000828254610b979190612f77565b925050819055505050565b6000805b600c80549050811015610c41573373ffffffffffffffffffffffffffffffffffffffff16600c8281548110610bde57610bdd612ed0565b5b9060005260206000200160009054906101000a900473ffffffffffffffffffffffffffffffffffffffff1673ffffffffffffffffffffffffffffffffffffffff161415610c2e5760019150610c41565b8080610c3990612f2e565b915050610ba6565b5080610c79576040517f51c8a88800000000000000000000000000000000000000000000000000000000815260040160405180910390fd5b6001600b60008481526020019081526020016000206000016000828254610ca09190612f77565b925050819055505050565b610cb3612615565b610cbd6007611a89565b821115610cf6576040517f508fa67b00000000000000000000000000000000000000000000000000000000815260040160405180910390fd5b600b600083815260200190815260200160002060405180606001604052908160008201548152602001600182015481526020016002820154815250509050919050565b610d4a610d446119c8565b82611a97565b610d89576040517f08c379a0000000000000000000000000000000000000000000000000000000008152600401610d809061303f565b60405180910390fd5b610d94838383611b2c565b505050565b6000610da56007611a89565b821115610dde576040517f508fa67b00000000000000000000000000000000000000000000000000000000815260040160405180910390fd5b600b6000838152602001908152602001600020600101549050919050565b610e1783838360405180602001604052806000815250611656565b505050565b6000805b600c80549050811015610ebb573373ffffffffffffffffffffffffffffffffffffffff16600c8281548110610e5857610e57612ed0565b5b9060005260206000200160009054906101000a900473ffffffffffffffffffffffffffffffffffffffff1673ffffffffffffffffffffffffffffffffffffffff161415610ea85760019150610ebb565b8080610eb390612f2e565b915050610e20565b5080610ef3576040517f51c8a88800000000000000000000000000000000000000000000000000000000815260040160405180910390fd5b81600b60008581526020019081526020016000206002016000828254610f19919061305f565b92505081905550505050565b600b6020528060005260406000206000915090508060000154908060010154908060020154905083565b600a60009054906101000a900473ffffffffffffffffffffffffffffffffffffffff1673ffffffffffffffffffffffffffffffffffffffff163373ffffffffffffffffffffffffffffffffffffffff1614610fd6576040517f51c8a88800000000000000000000000000000000000000000000000000000000815260040160405180910390fd5b60005b600c8054905081101561109d578173ffffffffffffffffffffffffffffffffffffffff16600c828154811061101157611010612ed0565b5b9060005260206000200160009054906101000a900473ffffffffffffffffffffffffffffffffffffffff1673ffffffffffffffffffffffffffffffffffffffff16141561108a576040517f52b13b8700000000000000000000000000000000000000000000000000000000815260040160405180910390fd5b808061109590612f2e565b915050610fd9565b50600c819080600181540180825580915050600190039060005260206000200160009091909190916101000a81548173ffffffffffffffffffffffffffffffffffffffff021916908373ffffffffffffffffffffffffffffffffffffffff16021790555050565b60008061111083611e26565b9050600073ffffffffffffffffffffffffffffffffffffffff168173ffffffffffffffffffffffffffffffffffffffff161415611182576040517f08c379a00000000000000000000000000000000000000000000000000000000081526004016111799061313f565b60405180910390fd5b80915050919050565b60095481565b600c81815481106111a157600080fd5b906000526020600020016000915054906101000a900473ffffffffffffffffffffffffffffffffffffffff1681565b60006111dc6007611a89565b905090565b60008073ffffffffffffffffffffffffffffffffffffffff168273ffffffffffffffffffffffffffffffffffffffff161415611252576040517f08c379a0000000000000000000000000000000000000000000000000000000008152600401611249906131d1565b60405180910390fd5b600360008373ffffffffffffffffffffffffffffffffffffffff1673ffffffffffffffffffffffffffffffffffffffff168152602001908152602001600020549050919050565b60006112a56007611a89565b8211156112de576040517f508fa67b00000000000000000000000000000000000000000000000000000000815260040160405180910390fd5b600b6000838152602001908152602001600020600201549050919050565b611304611e63565b61130e6000611ee1565b565b600061131b336111e1565b1115611353576040517f2528eb0300000000000000000000000000000000000000000000000000000000815260040160405180910390fd5b3273ffffffffffffffffffffffffffffffffffffffff163373ffffffffffffffffffffffffffffffffffffffff16146113b8576040517f51c8a88800000000000000000000000000000000000000000000000000000000815260040160405180910390fd5b6009543410156113f4576040517f2846b5b800000000000000000000000000000000000000000000000000000000815260040160405180910390fd5b60006114006007611a89565b905061140c3382611fa7565b604051806060016040528060008152602001600081526020016000815250600b60008381526020019081526020016000206000820151816000015560208201518160010155604082015181600201559050506114686007611fc5565b50565b600080611477836111e1565b14156114af576040517f11fe35b500000000000000000000000000000000000000000000000000000000815260040160405180910390fd5b6000805b6114bd6007611a89565b811015611517578373ffffffffffffffffffffffffffffffffffffffff166114e482611104565b73ffffffffffffffffffffffffffffffffffffffff161415611504578091505b808061150f90612f2e565b9150506114b3565b5080915050919050565b6000600660009054906101000a900473ffffffffffffffffffffffffffffffffffffffff16905090565b60606001805461155a90612d7a565b80601f016020809104026020016040519081016040528092919081815260200182805461158690612d7a565b80156115d35780601f106115a8576101008083540402835291602001916115d3565b820191906000526020600020905b8154815290600101906020018083116115b657829003601f168201915b5050505050905090565b6115ef6115e86119c8565b8383611fdb565b5050565b60006115ff6007611a89565b821115611638576040517f508fa67b00000000000000000000000000000000000000000000000000000000815260040160405180910390fd5b600b6000838152602001908152602001600020600001549050919050565b6116676116616119c8565b83611a97565b6116a6576040517f08c379a000000000000000000000000000000000000000000000000000000000815260040161169d9061303f565b60405180910390fd5b6116b284848484612148565b50505050565b6060600880546116c790612d7a565b80601f01602080910402602001604051908101604052809291908181526020018280546116f390612d7a565b80156117405780601f1061171557610100808354040283529160200191611740565b820191906000526020600020905b81548152906001019060200180831161172357829003601f168201915b50505050509050919050565b6000600560008473ffffffffffffffffffffffffffffffffffffffff1673ffffffffffffffffffffffffffffffffffffffff16815260200190815260200160002060008373ffffffffffffffffffffffffffffffffffffffff1673ffffffffffffffffffffffffffffffffffffffff16815260200190815260200160002060009054906101000a900460ff16905092915050565b6000806000905060005b600c8054905081101561188557600c818154811061180b5761180a612ed0565b5b9060005260206000200160009054906101000a900473ffffffffffffffffffffffffffffffffffffffff1673ffffffffffffffffffffffffffffffffffffffff168473ffffffffffffffffffffffffffffffffffffffff1614156118725760019150611885565b808061187d90612f2e565b9150506117ea565b5080915050919050565b611897611e63565b600073ffffffffffffffffffffffffffffffffffffffff168173ffffffffffffffffffffffffffffffffffffffff161415611907576040517f08c379a00000000000000000000000000000000000000000000000000000000081526004016118fe90613263565b60405180910390fd5b61191081611ee1565b50565b60007f01ffc9a7000000000000000000000000000000000000000000000000000000007bffffffffffffffffffffffffffffffffffffffffffffffffffffffff1916827bffffffffffffffffffffffffffffffffffffffffffffffffffffffff1916149050919050565b611986816121a4565b6119c5576040517f08c379a00000000000000000000000000000000000000000000000000000000081526004016119bc9061313f565b60405180910390fd5b50565b600033905090565b816004600083815260200190815260200160002060006101000a81548173ffffffffffffffffffffffffffffffffffffffff021916908373ffffffffffffffffffffffffffffffffffffffff160217905550808273ffffffffffffffffffffffffffffffffffffffff16611a4383611104565b73ffffffffffffffffffffffffffffffffffffffff167f8c5be1e5ebec7d5bd14f71427d1e84f3dd0314c0f7b2291e5b200ac8c7c3b92560405160405180910390a45050565b600081600001549050919050565b600080611aa383611104565b90508073ffffffffffffffffffffffffffffffffffffffff168473ffffffffffffffffffffffffffffffffffffffff161480611ae55750611ae4818561174c565b5b80611b2357508373ffffffffffffffffffffffffffffffffffffffff16611b0b8461093b565b73ffffffffffffffffffffffffffffffffffffffff16145b91505092915050565b8273ffffffffffffffffffffffffffffffffffffffff16611b4c82611104565b73ffffffffffffffffffffffffffffffffffffffff1614611ba2576040517f08c379a0000000000000000000000000000000000000000000000000000000008152600401611b99906132f5565b60405180910390fd5b600073ffffffffffffffffffffffffffffffffffffffff168273ffffffffffffffffffffffffffffffffffffffff161415611c12576040517f08c379a0000000000000000000000000000000000000000000000000000000008152600401611c0990613387565b60405180910390fd5b611c1f83838360016121e5565b8273ffffffffffffffffffffffffffffffffffffffff16611c3f82611104565b73ffffffffffffffffffffffffffffffffffffffff1614611c95576040517f08c379a0000000000000000000000000000000000000000000000000000000008152600401611c8c906132f5565b60405180910390fd5b6004600082815260200190815260200160002060006101000a81549073ffffffffffffffffffffffffffffffffffffffff02191690556001600360008573ffffffffffffffffffffffffffffffffffffffff1673ffffffffffffffffffffffffffffffffffffffff168152602001908152602001600020600082825403925050819055506001600360008473ffffffffffffffffffffffffffffffffffffffff1673ffffffffffffffffffffffffffffffffffffffff16815260200190815260200160002060008282540192505081905550816002600083815260200190815260200160002060006101000a81548173ffffffffffffffffffffffffffffffffffffffff021916908373ffffffffffffffffffffffffffffffffffffffff160217905550808273ffffffffffffffffffffffffffffffffffffffff168473ffffffffffffffffffffffffffffffffffffffff167fddf252ad1be2c89b69c2b068fc378daa952ba7f163c4a11628f55a4df523b3ef60405160405180910390a4611e2183838360016121eb565b505050565b60006002600083815260200190815260200160002060009054906101000a900473ffffffffffffffffffffffffffffffffffffffff169050919050565b611e6b6119c8565b73ffffffffffffffffffffffffffffffffffffffff16611e89611521565b73ffffffffffffffffffffffffffffffffffffffff1614611edf576040517f08c379a0000000000000000000000000000000000000000000000000000000008152600401611ed6906133f3565b60405180910390fd5b565b6000600660009054906101000a900473ffffffffffffffffffffffffffffffffffffffff16905081600660006101000a81548173ffffffffffffffffffffffffffffffffffffffff021916908373ffffffffffffffffffffffffffffffffffffffff1602179055508173ffffffffffffffffffffffffffffffffffffffff168173ffffffffffffffffffffffffffffffffffffffff167f8be0079c531659141344cd1fd0a4f28419497f9722a3daafe3b4186f6b6457e060405160405180910390a35050565b611fc18282604051806020016040528060008152506121f1565b5050565b6001816000016000828254019250508190555050565b8173ffffffffffffffffffffffffffffffffffffffff168373ffffffffffffffffffffffffffffffffffffffff16141561204a576040517f08c379a00000000000000000000000000000000000000000000000000000000081526004016120419061345f565b60405180910390fd5b80600560008573ffffffffffffffffffffffffffffffffffffffff1673ffffffffffffffffffffffffffffffffffffffff16815260200190815260200160002060008473ffffffffffffffffffffffffffffffffffffffff1673ffffffffffffffffffffffffffffffffffffffff16815260200190815260200160002060006101000a81548160ff0219169083151502179055508173ffffffffffffffffffffffffffffffffffffffff168373ffffffffffffffffffffffffffffffffffffffff167f17307eab39ab6107e8899845ad3d59bd9653f200f220920489ca2b5937696c318360405161213b91906126ea565b60405180910390a3505050565b612153848484611b2c565b61215f8484848461224c565b61219e576040517f08c379a0000000000000000000000000000000000000000000000000000000008152600401612195906134f1565b60405180910390fd5b50505050565b60008073ffffffffffffffffffffffffffffffffffffffff166121c683611e26565b73ffffffffffffffffffffffffffffffffffffffff1614159050919050565b50505050565b50505050565b6121fb83836123d4565b612208600084848461224c565b612247576040517f08c379a000000000000000000000000000000000000000000000000000000000815260040161223e906134f1565b60405180910390fd5b505050565b600061226d8473ffffffffffffffffffffffffffffffffffffffff166125f2565b156123c7578373ffffffffffffffffffffffffffffffffffffffff1663150b7a026122966119c8565b8786866040518563ffffffff1660e01b81526004016122b89493929190613566565b6020604051808303816000875af19250505080156122f457506040513d601f19601f820116820180604052508101906122f191906135c7565b60015b612377573d8060008114612324576040519150601f19603f3d011682016040523d82523d6000602084013e612329565b606091505b5060008151141561236f576040517f08c379a0000000000000000000000000000000000000000000000000000000008152600401612366906134f1565b60405180910390fd5b805181602001fd5b63150b7a0260e01b7bffffffffffffffffffffffffffffffffffffffffffffffffffffffff1916817bffffffffffffffffffffffffffffffffffffffffffffffffffffffff1916149150506123cc565b600190505b949350505050565b600073ffffffffffffffffffffffffffffffffffffffff168273ffffffffffffffffffffffffffffffffffffffff161415612444576040517f08c379a000000000000000000000000000000000000000000000000000000000815260040161243b90613640565b60405180910390fd5b61244d816121a4565b1561248d576040517f08c379a0000000000000000000000000000000000000000000000000000000008152600401612484906136ac565b60405180910390fd5b61249b6000838360016121e5565b6124a4816121a4565b156124e4576040517f08c379a00000000000000000000000000000000000000000000000000000000081526004016124db906136ac565b60405180910390fd5b6001600360008473ffffffffffffffffffffffffffffffffffffffff1673ffffffffffffffffffffffffffffffffffffffff16815260200190815260200160002060008282540192505081905550816002600083815260200190815260200160002060006101000a81548173ffffffffffffffffffffffffffffffffffffffff021916908373ffffffffffffffffffffffffffffffffffffffff160217905550808273ffffffffffffffffffffffffffffffffffffffff16600073ffffffffffffffffffffffffffffffffffffffff167fddf252ad1be2c89b69c2b068fc378daa952ba7f163c4a11628f55a4df523b3ef60405160405180910390a46125ee6000838360016121eb565b5050565b6000808273ffffffffffffffffffffffffffffffffffffffff163b119050919050565b60405180606001604052806000815260200160008152602001600081525090565b6000604051905090565b600080fd5b600080fd5b60007fffffffff0000000000000000000000000000000000000000000000000000000082169050919050565b61267f8161264a565b811461268a57600080fd5b50565b60008135905061269c81612676565b92915050565b6000602082840312156126b8576126b7612640565b5b60006126c68482850161268d565b91505092915050565b60008115159050919050565b6126e4816126cf565b82525050565b60006020820190506126ff60008301846126db565b92915050565b600081519050919050565b600082825260208201905092915050565b60005b8381101561273f578082015181840152602081019050612724565b8381111561274e576000848401525b50505050565b6000601f19601f8301169050919050565b600061277082612705565b61277a8185612710565b935061278a818560208601612721565b61279381612754565b840191505092915050565b600060208201905081810360008301526127b88184612765565b905092915050565b6000819050919050565b6127d3816127c0565b81146127de57600080fd5b50565b6000813590506127f0816127ca565b92915050565b60006020828403121561280c5761280b612640565b5b600061281a848285016127e1565b91505092915050565b600073ffffffffffffffffffffffffffffffffffffffff82169050919050565b600061284e82612823565b9050919050565b61285e81612843565b82525050565b60006020820190506128796000830184612855565b92915050565b61288881612843565b811461289357600080fd5b50565b6000813590506128a58161287f565b92915050565b600080604083850312156128c2576128c1612640565b5b60006128d085828601612896565b92505060206128e1858286016127e1565b9150509250929050565b6128f4816127c0565b82525050565b6000819050919050565b61290d816128fa565b82525050565b60608201600082015161292960008501826128eb565b50602082015161293c60208501826128eb565b50604082015161294f6040850182612904565b50505050565b600060608201905061296a6000830184612913565b92915050565b60008060006060848603121561298957612988612640565b5b600061299786828701612896565b93505060206129a886828701612896565b92505060406129b9868287016127e1565b9150509250925092565b6129cc816127c0565b82525050565b60006020820190506129e760008301846129c3565b92915050565b6129f6816128fa565b8114612a0157600080fd5b50565b600081359050612a13816129ed565b92915050565b60008060408385031215612a3057612a2f612640565b5b6000612a3e858286016127e1565b9250506020612a4f85828601612a04565b9150509250929050565b612a62816128fa565b82525050565b6000606082019050612a7d60008301866129c3565b612a8a60208301856129c3565b612a976040830184612a59565b949350505050565b600060208284031215612ab557612ab4612640565b5b6000612ac384828501612896565b91505092915050565b6000602082019050612ae16000830184612a59565b92915050565b612af0816126cf565b8114612afb57600080fd5b50565b600081359050612b0d81612ae7565b92915050565b60008060408385031215612b2a57612b29612640565b5b6000612b3885828601612896565b9250506020612b4985828601612afe565b9150509250929050565b600080fd5b600080fd5b7f4e487b7100000000000000000000000000000000000000000000000000000000600052604160045260246000fd5b612b9582612754565b810181811067ffffffffffffffff82111715612bb457612bb3612b5d565b5b80604052505050565b6000612bc7612636565b9050612bd38282612b8c565b919050565b600067ffffffffffffffff821115612bf357612bf2612b5d565b5b612bfc82612754565b9050602081019050919050565b82818337600083830152505050565b6000612c2b612c2684612bd8565b612bbd565b905082815260208101848484011115612c4757612c46612b58565b5b612c52848285612c09565b509392505050565b600082601f830112612c6f57612c6e612b53565b5b8135612c7f848260208601612c18565b91505092915050565b60008060008060808587031215612ca257612ca1612640565b5b6000612cb087828801612896565b9450506020612cc187828801612896565b9350506040612cd2878288016127e1565b925050606085013567ffffffffffffffff811115612cf357612cf2612645565b5b612cff87828801612c5a565b91505092959194509250565b60008060408385031215612d2257612d21612640565b5b6000612d3085828601612896565b9250506020612d4185828601612896565b9150509250929050565b7f4e487b7100000000000000000000000000000000000000000000000000000000600052602260045260246000fd5b60006002820490506001821680612d9257607f821691505b60208210811415612da657612da5612d4b565b5b50919050565b7f4552433732313a20617070726f76616c20746f2063757272656e74206f776e6560008201527f7200000000000000000000000000000000000000000000000000000000000000602082015250565b6000612e08602183612710565b9150612e1382612dac565b604082019050919050565b60006020820190508181036000830152612e3781612dfb565b9050919050565b7f4552433732313a20617070726f76652063616c6c6572206973206e6f7420746f60008201527f6b656e206f776e6572206f7220617070726f76656420666f7220616c6c000000602082015250565b6000612e9a603d83612710565b9150612ea582612e3e565b604082019050919050565b60006020820190508181036000830152612ec981612e8d565b9050919050565b7f4e487b7100000000000000000000000000000000000000000000000000000000600052603260045260246000fd5b7f4e487b7100000000000000000000000000000000000000000000000000000000600052601160045260246000fd5b6000612f39826127c0565b91507fffffffffffffffffffffffffffffffffffffffffffffffffffffffffffffffff821415612f6c57612f6b612eff565b5b600182019050919050565b6000612f82826127c0565b9150612f8d836127c0565b9250827fffffffffffffffffffffffffffffffffffffffffffffffffffffffffffffffff03821115612fc257612fc1612eff565b5b828201905092915050565b7f4552433732313a2063616c6c6572206973206e6f7420746f6b656e206f776e6560008201527f72206f7220617070726f76656400000000000000000000000000000000000000602082015250565b6000613029602d83612710565b915061303482612fcd565b604082019050919050565b600060208201905081810360008301526130588161301c565b9050919050565b600061306a826128fa565b9150613075836128fa565b9250817f7fffffffffffffffffffffffffffffffffffffffffffffffffffffffffffffff038313600083121516156130b0576130af612eff565b5b817f80000000000000000000000000000000000000000000000000000000000000000383126000831216156130e8576130e7612eff565b5b828201905092915050565b7f4552433732313a20696e76616c696420746f6b656e2049440000000000000000600082015250565b6000613129601883612710565b9150613134826130f3565b602082019050919050565b600060208201905081810360008301526131588161311c565b9050919050565b7f4552433732313a2061646472657373207a65726f206973206e6f74206120766160008201527f6c6964206f776e65720000000000000000000000000000000000000000000000602082015250565b60006131bb602983612710565b91506131c68261315f565b604082019050919050565b600060208201905081810360008301526131ea816131ae565b9050919050565b7f4f776e61626c653a206e6577206f776e657220697320746865207a65726f206160008201527f6464726573730000000000000000000000000000000000000000000000000000602082015250565b600061324d602683612710565b9150613258826131f1565b604082019050919050565b6000602082019050818103600083015261327c81613240565b9050919050565b7f4552433732313a207472616e736665722066726f6d20696e636f72726563742060008201527f6f776e6572000000000000000000000000000000000000000000000000000000602082015250565b60006132df602583612710565b91506132ea82613283565b604082019050919050565b6000602082019050818103600083015261330e816132d2565b9050919050565b7f4552433732313a207472616e7366657220746f20746865207a65726f2061646460008201527f7265737300000000000000000000000000000000000000000000000000000000602082015250565b6000613371602483612710565b915061337c82613315565b604082019050919050565b600060208201905081810360008301526133a081613364565b9050919050565b7f4f776e61626c653a2063616c6c6572206973206e6f7420746865206f776e6572600082015250565b60006133dd602083612710565b91506133e8826133a7565b602082019050919050565b6000602082019050818103600083015261340c816133d0565b9050919050565b7f4552433732313a20617070726f766520746f2063616c6c657200000000000000600082015250565b6000613449601983612710565b915061345482613413565b602082019050919050565b600060208201905081810360008301526134788161343c565b9050919050565b7f4552433732313a207472616e7366657220746f206e6f6e20455243373231526560008201527f63656976657220696d706c656d656e7465720000000000000000000000000000602082015250565b60006134db603283612710565b91506134e68261347f565b604082019050919050565b6000602082019050818103600083015261350a816134ce565b9050919050565b600081519050919050565b600082825260208201905092915050565b600061353882613511565b613542818561351c565b9350613552818560208601612721565b61355b81612754565b840191505092915050565b600060808201905061357b6000830187612855565b6135886020830186612855565b61359560408301856129c3565b81810360608301526135a7818461352d565b905095945050505050565b6000815190506135c181612676565b92915050565b6000602082840312156135dd576135dc612640565b5b60006135eb848285016135b2565b91505092915050565b7f4552433732313a206d696e7420746f20746865207a65726f2061646472657373600082015250565b600061362a602083612710565b9150613635826135f4565b602082019050919050565b600060208201905081810360008301526136598161361d565b9050919050565b7f4552433732313a20746f6b656e20616c7265616479206d696e74656400000000600082015250565b6000613696601c83612710565b91506136a182613660565b602082019050919050565b600060208201905081810360008301526136c581613689565b905091905056fea26469706673582212201bce540d6025479e851ae62f87912a90a37ca0b9071894b90f131e7aa45a14a764736f6c634300080a0033",
  "devdoc": {
    "kind": "dev",
    "methods": {
      "approve(address,uint256)": {
        "details": "See {IERC721-approve}."
      },
      "balanceOf(address)": {
        "details": "See {IERC721-balanceOf}."
      },
      "getApproved(uint256)": {
        "details": "See {IERC721-getApproved}."
      },
      "isApprovedForAll(address,address)": {
        "details": "See {IERC721-isApprovedForAll}."
      },
      "name()": {
        "details": "See {IERC721Metadata-name}."
      },
      "owner()": {
        "details": "Returns the address of the current owner."
      },
      "ownerOf(uint256)": {
        "details": "See {IERC721-ownerOf}."
      },
      "renounceOwnership()": {
        "details": "Leaves the contract without owner. It will not be possible to call `onlyOwner` functions. Can only be called by the current owner. NOTE: Renouncing ownership will leave the contract without an owner, thereby disabling any functionality that is only available to the owner."
      },
      "safeTransferFrom(address,address,uint256)": {
        "details": "See {IERC721-safeTransferFrom}."
      },
      "safeTransferFrom(address,address,uint256,bytes)": {
        "details": "See {IERC721-safeTransferFrom}."
      },
      "setApprovalForAll(address,bool)": {
        "details": "See {IERC721-setApprovalForAll}."
      },
      "supportsInterface(bytes4)": {
        "details": "See {IERC165-supportsInterface}."
      },
      "symbol()": {
        "details": "See {IERC721Metadata-symbol}."
      },
      "tokenURI(uint256)": {
        "details": "See {IERC721Metadata-tokenURI}."
      },
      "transferFrom(address,address,uint256)": {
        "details": "See {IERC721-transferFrom}."
      },
      "transferOwnership(address)": {
        "details": "Transfers ownership of the contract to a new account (`newOwner`). Can only be called by the current owner."
      }
    },
    "version": 1
  },
  "userdoc": {
    "kind": "user",
    "methods": {},
    "version": 1
  },
  "storageLayout": {
    "storage": [
      {
        "astId": 1448,
        "contract": "contracts/GameCoin.sol:GameCoins",
        "label": "_name",
        "offset": 0,
        "slot": "0",
        "type": "t_string_storage"
      },
      {
        "astId": 1450,
        "contract": "contracts/GameCoin.sol:GameCoins",
        "label": "_symbol",
        "offset": 0,
        "slot": "1",
        "type": "t_string_storage"
      },
      {
        "astId": 1454,
        "contract": "contracts/GameCoin.sol:GameCoins",
        "label": "_owners",
        "offset": 0,
        "slot": "2",
        "type": "t_mapping(t_uint256,t_address)"
      },
      {
        "astId": 1458,
        "contract": "contracts/GameCoin.sol:GameCoins",
        "label": "_balances",
        "offset": 0,
        "slot": "3",
        "type": "t_mapping(t_address,t_uint256)"
      },
      {
        "astId": 1462,
        "contract": "contracts/GameCoin.sol:GameCoins",
        "label": "_tokenApprovals",
        "offset": 0,
        "slot": "4",
        "type": "t_mapping(t_uint256,t_address)"
      },
      {
        "astId": 1468,
        "contract": "contracts/GameCoin.sol:GameCoins",
        "label": "_operatorApprovals",
        "offset": 0,
        "slot": "5",
        "type": "t_mapping(t_address,t_mapping(t_address,t_bool))"
      },
      {
        "astId": 1317,
        "contract": "contracts/GameCoin.sol:GameCoins",
        "label": "_owner",
        "offset": 0,
        "slot": "6",
        "type": "t_address"
      },
      {
        "astId": 4200,
        "contract": "contracts/GameCoin.sol:GameCoins",
        "label": "_tokenIdCounter",
        "offset": 0,
        "slot": "7",
        "type": "t_struct(Counter)2868_storage"
      },
      {
        "astId": 4202,
        "contract": "contracts/GameCoin.sol:GameCoins",
        "label": "TOKENURI",
        "offset": 0,
        "slot": "8",
        "type": "t_string_storage"
      },
      {
        "astId": 4204,
        "contract": "contracts/GameCoin.sol:GameCoins",
        "label": "mintPrice",
        "offset": 0,
        "slot": "9",
        "type": "t_uint256"
      },
      {
        "astId": 4213,
        "contract": "contracts/GameCoin.sol:GameCoins",
        "label": "contractOwner",
        "offset": 0,
        "slot": "10",
        "type": "t_address"
      },
      {
        "astId": 4271,
        "contract": "contracts/GameCoin.sol:GameCoins",
        "label": "addressAttributes",
        "offset": 0,
        "slot": "11",
        "type": "t_mapping(t_uint256,t_struct(coinAttributes)4211_storage)"
      },
      {
        "astId": 4299,
        "contract": "contracts/GameCoin.sol:GameCoins",
        "label": "connectedContracts",
        "offset": 0,
        "slot": "12",
        "type": "t_array(t_address)dyn_storage"
      }
    ],
    "types": {
      "t_address": {
        "encoding": "inplace",
        "label": "address",
        "numberOfBytes": "20"
      },
      "t_array(t_address)dyn_storage": {
        "base": "t_address",
        "encoding": "dynamic_array",
        "label": "address[]",
        "numberOfBytes": "32"
      },
      "t_bool": {
        "encoding": "inplace",
        "label": "bool",
        "numberOfBytes": "1"
      },
      "t_int256": {
        "encoding": "inplace",
        "label": "int256",
        "numberOfBytes": "32"
      },
      "t_mapping(t_address,t_bool)": {
        "encoding": "mapping",
        "key": "t_address",
        "label": "mapping(address => bool)",
        "numberOfBytes": "32",
        "value": "t_bool"
      },
      "t_mapping(t_address,t_mapping(t_address,t_bool))": {
        "encoding": "mapping",
        "key": "t_address",
        "label": "mapping(address => mapping(address => bool))",
        "numberOfBytes": "32",
        "value": "t_mapping(t_address,t_bool)"
      },
      "t_mapping(t_address,t_uint256)": {
        "encoding": "mapping",
        "key": "t_address",
        "label": "mapping(address => uint256)",
        "numberOfBytes": "32",
        "value": "t_uint256"
      },
      "t_mapping(t_uint256,t_address)": {
        "encoding": "mapping",
        "key": "t_uint256",
        "label": "mapping(uint256 => address)",
        "numberOfBytes": "32",
        "value": "t_address"
      },
      "t_mapping(t_uint256,t_struct(coinAttributes)4211_storage)": {
        "encoding": "mapping",
        "key": "t_uint256",
        "label": "mapping(uint256 => struct GameCoins.coinAttributes)",
        "numberOfBytes": "32",
        "value": "t_struct(coinAttributes)4211_storage"
      },
      "t_string_storage": {
        "encoding": "bytes",
        "label": "string",
        "numberOfBytes": "32"
      },
      "t_struct(Counter)2868_storage": {
        "encoding": "inplace",
        "label": "struct Counters.Counter",
        "members": [
          {
            "astId": 2867,
            "contract": "contracts/GameCoin.sol:GameCoins",
            "label": "_value",
            "offset": 0,
            "slot": "0",
            "type": "t_uint256"
          }
        ],
        "numberOfBytes": "32"
      },
      "t_struct(coinAttributes)4211_storage": {
        "encoding": "inplace",
        "label": "struct GameCoins.coinAttributes",
        "members": [
          {
            "astId": 4206,
            "contract": "contracts/GameCoin.sol:GameCoins",
            "label": "_wins",
            "offset": 0,
            "slot": "0",
            "type": "t_uint256"
          },
          {
            "astId": 4208,
            "contract": "contracts/GameCoin.sol:GameCoins",
            "label": "_losses",
            "offset": 0,
            "slot": "1",
            "type": "t_uint256"
          },
          {
            "astId": 4210,
            "contract": "contracts/GameCoin.sol:GameCoins",
            "label": "_amountWon",
            "offset": 0,
            "slot": "2",
            "type": "t_int256"
          }
        ],
        "numberOfBytes": "96"
      },
      "t_uint256": {
        "encoding": "inplace",
        "label": "uint256",
        "numberOfBytes": "32"
      }
    }
  }
}