{
  "address": "0xFD296cCDB97C605bfdE514e9810eA05f421DEBc2",
  "abi": [
    {
      "inputs": [
        {
          "internalType": "address",
          "name": "vrfCoordinatorAddress",
          "type": "address"
        },
        {
          "internalType": "uint256",
          "name": "_gameFee",
          "type": "uint256"
        },
        {
          "internalType": "uint64",
          "name": "subsriptionId",
          "type": "uint64"
        },
        {
          "internalType": "bytes32",
          "name": "keyHash",
          "type": "bytes32"
        },
        {
          "internalType": "uint32",
          "name": "callbackGasLimit",
          "type": "uint32"
        },
        {
          "internalType": "address",
          "name": "_gamecoins",
          "type": "address"
        }
      ],
      "stateMutability": "nonpayable",
      "type": "constructor"
    },
    {
      "inputs": [],
      "name": "CoinFlip_betAmountTooLow",
      "type": "error"
    },
    {
      "inputs": [],
      "name": "CoinFlip_incorrectAddress",
      "type": "error"
    },
    {
      "inputs": [],
      "name": "CoinFlip_noGameFoundWithThisAmount",
      "type": "error"
    },
    {
      "inputs": [],
      "name": "CoinFlip_notAnNftOwner",
      "type": "error"
    },
    {
      "inputs": [],
      "name": "CoinFlip_notEnoughFunds",
      "type": "error"
    },
    {
      "inputs": [
        {
          "internalType": "address",
          "name": "have",
          "type": "address"
        },
        {
          "internalType": "address",
          "name": "want",
          "type": "address"
        }
      ],
      "name": "OnlyCoordinatorCanFulfill",
      "type": "error"
    },
    {
      "anonymous": false,
      "inputs": [
        {
          "indexed": true,
          "internalType": "address",
          "name": "from",
          "type": "address"
        },
        {
          "indexed": true,
          "internalType": "address",
          "name": "to",
          "type": "address"
        }
      ],
      "name": "OwnershipTransferRequested",
      "type": "event"
    },
    {
      "anonymous": false,
      "inputs": [
        {
          "indexed": true,
          "internalType": "address",
          "name": "from",
          "type": "address"
        },
        {
          "indexed": true,
          "internalType": "address",
          "name": "to",
          "type": "address"
        }
      ],
      "name": "OwnershipTransferred",
      "type": "event"
    },
    {
      "anonymous": false,
      "inputs": [
        {
          "indexed": true,
          "internalType": "uint256",
          "name": "requestId",
          "type": "uint256"
        }
      ],
      "name": "RequestedWinner",
      "type": "event"
    },
    {
      "anonymous": false,
      "inputs": [
        {
          "indexed": true,
          "internalType": "address",
          "name": "_sender",
          "type": "address"
        },
        {
          "indexed": true,
          "internalType": "address",
          "name": "_receiver",
          "type": "address"
        },
        {
          "indexed": false,
          "internalType": "uint256",
          "name": "_amount",
          "type": "uint256"
        }
      ],
      "name": "amountTransfered",
      "type": "event"
    },
    {
      "anonymous": false,
      "inputs": [
        {
          "indexed": true,
          "internalType": "uint256",
          "name": "_gameId",
          "type": "uint256"
        },
        {
          "indexed": false,
          "internalType": "enum Gameplay.Symbol",
          "name": "_winningSymbol",
          "type": "uint8"
        }
      ],
      "name": "coinFlipResult",
      "type": "event"
    },
    {
      "anonymous": false,
      "inputs": [
        {
          "indexed": true,
          "internalType": "uint256",
          "name": "_gameId",
          "type": "uint256"
        },
        {
          "indexed": true,
          "internalType": "address",
          "name": "_challenger",
          "type": "address"
        },
        {
          "indexed": false,
          "internalType": "uint256",
          "name": "_amount",
          "type": "uint256"
        },
        {
          "indexed": false,
          "internalType": "enum Gameplay.Symbol",
          "name": "_creatorSymbol",
          "type": "uint8"
        }
      ],
      "name": "gameCreated",
      "type": "event"
    },
    {
      "anonymous": false,
      "inputs": [
        {
          "indexed": true,
          "internalType": "uint256",
          "name": "_gameId",
          "type": "uint256"
        },
        {
          "indexed": true,
          "internalType": "address",
          "name": "_winner",
          "type": "address"
        },
        {
          "indexed": true,
          "internalType": "address",
          "name": "_loser",
          "type": "address"
        },
        {
          "indexed": false,
          "internalType": "uint256",
          "name": "_amount",
          "type": "uint256"
        }
      ],
      "name": "gameFinished",
      "type": "event"
    },
    {
      "anonymous": false,
      "inputs": [
        {
          "indexed": true,
          "internalType": "uint256",
          "name": "_gameId",
          "type": "uint256"
        },
        {
          "indexed": true,
          "internalType": "address",
          "name": "_challenger",
          "type": "address"
        },
        {
          "indexed": true,
          "internalType": "address",
          "name": "_joiner",
          "type": "address"
        },
        {
          "indexed": false,
          "internalType": "uint256",
          "name": "_amount",
          "type": "uint256"
        },
        {
          "indexed": false,
          "internalType": "enum Gameplay.Symbol",
          "name": "_creatorSymbol",
          "type": "uint8"
        }
      ],
      "name": "gameStarted",
      "type": "event"
    },
    {
      "inputs": [],
      "name": "acceptOwnership",
      "outputs": [],
      "stateMutability": "nonpayable",
      "type": "function"
    },
    {
      "inputs": [],
      "name": "allAvailableGames",
      "outputs": [
        {
          "internalType": "uint256",
          "name": "",
          "type": "uint256"
        }
      ],
      "stateMutability": "view",
      "type": "function"
    },
    {
      "inputs": [],
      "name": "allFinishedGames",
      "outputs": [
        {
          "internalType": "uint256",
          "name": "",
          "type": "uint256"
        }
      ],
      "stateMutability": "view",
      "type": "function"
    },
    {
      "inputs": [
        {
          "internalType": "uint256",
          "name": "_amount",
          "type": "uint256"
        }
      ],
      "name": "allGamesBasedOnAmount",
      "outputs": [
        {
          "internalType": "uint256",
          "name": "",
          "type": "uint256"
        }
      ],
      "stateMutability": "view",
      "type": "function"
    },
    {
      "inputs": [],
      "name": "allGamesInProgress",
      "outputs": [
        {
          "internalType": "uint256",
          "name": "",
          "type": "uint256"
        }
      ],
      "stateMutability": "view",
      "type": "function"
    },
    {
      "inputs": [
        {
          "internalType": "uint256",
          "name": "",
          "type": "uint256"
        }
      ],
      "name": "availableGames",
      "outputs": [
        {
          "internalType": "uint256",
          "name": "_gameId",
          "type": "uint256"
        },
        {
          "internalType": "address",
          "name": "_challenger",
          "type": "address"
        },
        {
          "internalType": "uint256",
          "name": "_amount",
          "type": "uint256"
        },
        {
          "internalType": "enum Gameplay.Symbol",
          "name": "_symbol",
          "type": "uint8"
        }
      ],
      "stateMutability": "view",
      "type": "function"
    },
    {
      "inputs": [
        {
          "internalType": "address",
          "name": "",
          "type": "address"
        }
      ],
      "name": "balance",
      "outputs": [
        {
          "internalType": "uint256",
          "name": "",
          "type": "uint256"
        }
      ],
      "stateMutability": "view",
      "type": "function"
    },
    {
      "inputs": [
        {
          "internalType": "address",
          "name": "_address",
          "type": "address"
        }
      ],
      "name": "balanceOf",
      "outputs": [
        {
          "internalType": "uint256",
          "name": "",
          "type": "uint256"
        }
      ],
      "stateMutability": "view",
      "type": "function"
    },
    {
      "inputs": [
        {
          "internalType": "uint256",
          "name": "_gameId",
          "type": "uint256"
        }
      ],
      "name": "cancelGame",
      "outputs": [],
      "stateMutability": "nonpayable",
      "type": "function"
    },
    {
      "inputs": [],
      "name": "deposit",
      "outputs": [],
      "stateMutability": "payable",
      "type": "function"
    },
    {
      "inputs": [
        {
          "internalType": "uint256",
          "name": "",
          "type": "uint256"
        }
      ],
      "name": "finishedGames",
      "outputs": [
        {
          "internalType": "uint256",
          "name": "_gameId",
          "type": "uint256"
        },
        {
          "internalType": "address",
          "name": "_winner",
          "type": "address"
        },
        {
          "internalType": "address",
          "name": "_loser",
          "type": "address"
        },
        {
          "internalType": "uint256",
          "name": "_amount",
          "type": "uint256"
        }
      ],
      "stateMutability": "view",
      "type": "function"
    },
    {
      "inputs": [],
      "name": "gameFee",
      "outputs": [
        {
          "internalType": "uint256",
          "name": "",
          "type": "uint256"
        }
      ],
      "stateMutability": "view",
      "type": "function"
    },
    {
      "inputs": [],
      "name": "gameId",
      "outputs": [
        {
          "internalType": "uint256",
          "name": "",
          "type": "uint256"
        }
      ],
      "stateMutability": "view",
      "type": "function"
    },
    {
      "inputs": [
        {
          "internalType": "uint256",
          "name": "randValue",
          "type": "uint256"
        }
      ],
      "name": "gameLogic",
      "outputs": [
        {
          "internalType": "enum Gameplay.Symbol",
          "name": "",
          "type": "uint8"
        }
      ],
      "stateMutability": "view",
      "type": "function"
    },
    {
      "inputs": [],
      "name": "gamecoins",
      "outputs": [
        {
          "internalType": "contract GameCoins",
          "name": "",
          "type": "address"
        }
      ],
      "stateMutability": "view",
      "type": "function"
    },
    {
      "inputs": [
        {
          "internalType": "uint256",
          "name": "",
          "type": "uint256"
        }
      ],
      "name": "gamesInProgress",
      "outputs": [
        {
          "internalType": "uint256",
          "name": "_gameId",
          "type": "uint256"
        },
        {
          "internalType": "address",
          "name": "_challenger",
          "type": "address"
        },
        {
          "internalType": "address",
          "name": "_joiner",
          "type": "address"
        },
        {
          "internalType": "uint256",
          "name": "_amount",
          "type": "uint256"
        },
        {
          "internalType": "enum Gameplay.Symbol",
          "name": "_symbol",
          "type": "uint8"
        }
      ],
      "stateMutability": "view",
      "type": "function"
    },
    {
      "inputs": [],
      "name": "getGameFee",
      "outputs": [
        {
          "internalType": "uint256",
          "name": "",
          "type": "uint256"
        }
      ],
      "stateMutability": "view",
      "type": "function"
    },
    {
      "inputs": [],
      "name": "getGameIdRandomValues",
      "outputs": [
        {
          "internalType": "uint256[]",
          "name": "",
          "type": "uint256[]"
        }
      ],
      "stateMutability": "view",
      "type": "function"
    },
    {
      "inputs": [
        {
          "internalType": "uint256",
          "name": "_amount",
          "type": "uint256"
        }
      ],
      "name": "joinGame",
      "outputs": [],
      "stateMutability": "nonpayable",
      "type": "function"
    },
    {
      "inputs": [],
      "name": "minBet",
      "outputs": [
        {
          "internalType": "uint256",
          "name": "",
          "type": "uint256"
        }
      ],
      "stateMutability": "view",
      "type": "function"
    },
    {
      "inputs": [],
      "name": "owner",
      "outputs": [
        {
          "internalType": "address",
          "name": "",
          "type": "address"
        }
      ],
      "stateMutability": "view",
      "type": "function"
    },
    {
      "inputs": [],
      "name": "probability",
      "outputs": [
        {
          "internalType": "uint256",
          "name": "",
          "type": "uint256"
        }
      ],
      "stateMutability": "view",
      "type": "function"
    },
    {
      "inputs": [
        {
          "internalType": "uint256",
          "name": "requestId",
          "type": "uint256"
        },
        {
          "internalType": "uint256[]",
          "name": "randomWords",
          "type": "uint256[]"
        }
      ],
      "name": "rawFulfillRandomWords",
      "outputs": [],
      "stateMutability": "nonpayable",
      "type": "function"
    },
    {
      "inputs": [
        {
          "internalType": "uint256",
          "name": "_amount",
          "type": "uint256"
        },
        {
          "internalType": "enum Gameplay.Symbol",
          "name": "_symbol",
          "type": "uint8"
        }
      ],
      "name": "startGame",
      "outputs": [],
      "stateMutability": "nonpayable",
      "type": "function"
    },
    {
      "inputs": [
        {
          "internalType": "address",
          "name": "to",
          "type": "address"
        }
      ],
      "name": "transferOwnership",
      "outputs": [],
      "stateMutability": "nonpayable",
      "type": "function"
    },
    {
      "inputs": [],
      "name": "viewGameNumber",
      "outputs": [
        {
          "internalType": "uint256",
          "name": "",
          "type": "uint256"
        }
      ],
      "stateMutability": "view",
      "type": "function"
    },
    {
      "inputs": [
        {
          "internalType": "uint256",
          "name": "_gameId",
          "type": "uint256"
        }
      ],
      "name": "viewWinner",
      "outputs": [
        {
          "internalType": "address",
          "name": "",
          "type": "address"
        }
      ],
      "stateMutability": "view",
      "type": "function"
    },
    {
      "inputs": [
        {
          "internalType": "uint256",
          "name": "_amount",
          "type": "uint256"
        }
      ],
      "name": "withdraw",
      "outputs": [],
      "stateMutability": "payable",
      "type": "function"
    },
    {
      "inputs": [
        {
          "internalType": "uint256",
          "name": "",
          "type": "uint256"
        }
      ],
      "name": "wordRequests",
      "outputs": [
        {
          "internalType": "uint256",
          "name": "_gameId",
          "type": "uint256"
        },
        {
          "internalType": "bool",
          "name": "_fulfilled",
          "type": "bool"
        }
      ],
      "stateMutability": "view",
      "type": "function"
    }
  ],
  "transactionHash": "0xac337d690283dfb76de587ad9e54d772aef15ba11b274643d4aa632d11b6bc82",
  "args": [
    "0x9852795dbb01913439f534b4984fBf74aC8AfA12",
    "5000000000000000000",
    "1",
    "0x4b09e658ed251bcafeebbc69400383d49f344ace09b9576fe248bb02c003fe9f",
    "2500000",
    "0x889D9A5AF83525a2275e41464FAECcCb3337fF60"
  ],
  "numDeployments": 1,
  "solcInputHash": "fe9121ebce97acdf99391599a040de4c",
  "bytecode": "0x610180604052600361ffff166101009061ffff16815250600763ffffffff166101209063ffffffff16815250603260045567016345785d8a00006006553480156200004957600080fd5b50604051620044193803806200441983398181016040528101906200006f919062000540565b33806000888073ffffffffffffffffffffffffffffffffffffffff1660808173ffffffffffffffffffffffffffffffffffffffff168152505050600073ffffffffffffffffffffffffffffffffffffffff168273ffffffffffffffffffffffffffffffffffffffff1614156200011c576040517f08c379a000000000000000000000000000000000000000000000000000000000815260040162000113906200063d565b60405180910390fd5b816000806101000a81548173ffffffffffffffffffffffffffffffffffffffff021916908373ffffffffffffffffffffffffffffffffffffffff160217905550600073ffffffffffffffffffffffffffffffffffffffff168173ffffffffffffffffffffffffffffffffffffffff1614620001a357620001a281620002aa60201b60201c565b5b50505085600260006101000a81548173ffffffffffffffffffffffffffffffffffffffff021916908373ffffffffffffffffffffffffffffffffffffffff1602179055503373ffffffffffffffffffffffffffffffffffffffff166101608173ffffffffffffffffffffffffffffffffffffffff16815250508461014081815250508367ffffffffffffffff1660a08167ffffffffffffffff16815250508260c081815250508163ffffffff1660e08163ffffffff168152505080600360006101000a81548173ffffffffffffffffffffffffffffffffffffffff021916908373ffffffffffffffffffffffffffffffffffffffff160217905550505050505050620006d1565b3373ffffffffffffffffffffffffffffffffffffffff168173ffffffffffffffffffffffffffffffffffffffff1614156200031c576040517f08c379a00000000000000000000000000000000000000000000000000000000081526004016200031390620006af565b60405180910390fd5b80600160006101000a81548173ffffffffffffffffffffffffffffffffffffffff021916908373ffffffffffffffffffffffffffffffffffffffff1602179055508073ffffffffffffffffffffffffffffffffffffffff1660008054906101000a900473ffffffffffffffffffffffffffffffffffffffff1673ffffffffffffffffffffffffffffffffffffffff167fed8889f560326eb138920d842192f0eb3dd22b4f139c87a2c57538e05bae127860405160405180910390a350565b600080fd5b600073ffffffffffffffffffffffffffffffffffffffff82169050919050565b60006200040c82620003df565b9050919050565b6200041e81620003ff565b81146200042a57600080fd5b50565b6000815190506200043e8162000413565b92915050565b6000819050919050565b620004598162000444565b81146200046557600080fd5b50565b60008151905062000479816200044e565b92915050565b600067ffffffffffffffff82169050919050565b6200049e816200047f565b8114620004aa57600080fd5b50565b600081519050620004be8162000493565b92915050565b6000819050919050565b620004d981620004c4565b8114620004e557600080fd5b50565b600081519050620004f981620004ce565b92915050565b600063ffffffff82169050919050565b6200051a81620004ff565b81146200052657600080fd5b50565b6000815190506200053a816200050f565b92915050565b60008060008060008060c0878903121562000560576200055f620003da565b5b60006200057089828a016200042d565b96505060206200058389828a0162000468565b95505060406200059689828a01620004ad565b9450506060620005a989828a01620004e8565b9350506080620005bc89828a0162000529565b92505060a0620005cf89828a016200042d565b9150509295509295509295565b600082825260208201905092915050565b7f43616e6e6f7420736574206f776e657220746f207a65726f0000000000000000600082015250565b600062000625601883620005dc565b91506200063282620005ed565b602082019050919050565b60006020820190508181036000830152620006588162000616565b9050919050565b7f43616e6e6f74207472616e7366657220746f2073656c66000000000000000000600082015250565b600062000697601783620005dc565b9150620006a4826200065f565b602082019050919050565b60006020820190508181036000830152620006ca8162000688565b9050919050565b60805160a05160c05160e05161010051610120516101405161016051613cb16200076860003960008181610c4f0152818161129101528181611a2201526128c0015260008181610a0e015281816115e0015261288f0152600081816120490152612431015260006123ef01526000612410015260006123ad015260006123ce0152600081816107c7015261081b0152613cb16000f3fe6080604052600436106101c25760003560e01c80639966cc83116100f7578063d7c81b5511610095578063efaa55a011610064578063efaa55a014610636578063f2fde38b1461065f578063f488991c14610688578063fec19e92146106c5576101c2565b8063d7c81b5514610562578063e2a9b85d1461058d578063e3d670d7146105ce578063ea777eec1461060b576101c2565b8063c4f7cac2116100d1578063c4f7cac2146104d7578063ca372f3814610502578063d0e30db01461052d578063d209daed14610537576101c2565b80639966cc8314610431578063bdb1175314610471578063c394f68b1461049a576101c2565b80636061b22b1161016457806379ba50971161013e57806379ba5097146103995780638da5cb5b146103b05780639619367d146103db578063970d630914610406576101c2565b80636061b22b146102f557806369958ab91461033357806370a082311461035c576101c2565b80631fe543e3116101a05780631fe543e31461025a5780632e1a7d4d14610283578063481456f91461029f5780635bba88f1146102ca576101c2565b806304cd21f6146101c75780630e9b7aab146101f25780631f197a731461021d575b600080fd5b3480156101d357600080fd5b506101dc610705565b6040516101e99190612fdb565b60405180910390f35b3480156101fe57600080fd5b50610207610712565b6040516102149190612fdb565b60405180910390f35b34801561022957600080fd5b50610244600480360381019061023f9190613036565b61071f565b60405161025191906130a4565b60405180910390f35b34801561026657600080fd5b50610281600480360381019061027c9190613218565b6107c5565b005b61029d60048036038101906102989190613036565b610885565b005b3480156102ab57600080fd5b506102b4610a04565b6040516102c19190612fdb565b60405180910390f35b3480156102d657600080fd5b506102df610a0a565b6040516102ec9190612fdb565b60405180910390f35b34801561030157600080fd5b5061031c60048036038101906103179190613036565b610a32565b60405161032a92919061328f565b60405180910390f35b34801561033f57600080fd5b5061035a60048036038101906103559190613036565b610a63565b005b34801561036857600080fd5b50610383600480360381019061037e91906132e4565b610e18565b6040516103909190612fdb565b60405180910390f35b3480156103a557600080fd5b506103ae610e61565b005b3480156103bc57600080fd5b506103c5610ff6565b6040516103d291906130a4565b60405180910390f35b3480156103e757600080fd5b506103f061101f565b6040516103fd9190612fdb565b60405180910390f35b34801561041257600080fd5b5061041b611025565b60405161042891906133cf565b60405180910390f35b34801561043d57600080fd5b5061045860048036038101906104539190613036565b611093565b6040516104689493929190613468565b60405180910390f35b34801561047d57600080fd5b50610498600480360381019061049391906134d2565b611100565b005b3480156104a657600080fd5b506104c160048036038101906104bc9190613036565b611428565b6040516104ce9190612fdb565b60405180910390f35b3480156104e357600080fd5b506104ec611498565b6040516104f99190612fdb565b60405180910390f35b34801561050e57600080fd5b506105176114a5565b6040516105249190612fdb565b60405180910390f35b6105356114af565b005b34801561054357600080fd5b5061054c611507565b6040516105599190613571565b60405180910390f35b34801561056e57600080fd5b5061057761152d565b6040516105849190612fdb565b60405180910390f35b34801561059957600080fd5b506105b460048036038101906105af9190613036565b611533565b6040516105c595949392919061358c565b60405180910390f35b3480156105da57600080fd5b506105f560048036038101906105f091906132e4565b6115c6565b6040516106029190612fdb565b60405180910390f35b34801561061757600080fd5b506106206115de565b60405161062d9190612fdb565b60405180910390f35b34801561064257600080fd5b5061065d60048036038101906106589190613036565b611602565b005b34801561066b57600080fd5b50610686600480360381019061068191906132e4565b611db2565b005b34801561069457600080fd5b506106af60048036038101906106aa9190613036565b611dc6565b6040516106bc91906135df565b60405180910390f35b3480156106d157600080fd5b506106ec60048036038101906106e79190613036565b611dfc565b6040516106fc94939291906135fa565b60405180910390f35b6000600880549050905090565b6000600780549050905090565b60008060005b6009805490508110156107bb5783600982815481106107475761074661363f565b5b90600052602060002090600402016000015414156107a857600981815481106107735761077261363f565b5b906000526020600020906004020160010160009054906101000a900473ffffffffffffffffffffffffffffffffffffffff1691505b80806107b39061369d565b915050610725565b5080915050919050565b7f000000000000000000000000000000000000000000000000000000000000000073ffffffffffffffffffffffffffffffffffffffff163373ffffffffffffffffffffffffffffffffffffffff161461087757337f00000000000000000000000000000000000000000000000000000000000000006040517f1cf993f400000000000000000000000000000000000000000000000000000000815260040161086e9291906136e6565b60405180910390fd5b6108818282611e7c565b5050565b80600a60003373ffffffffffffffffffffffffffffffffffffffff1673ffffffffffffffffffffffffffffffffffffffff1681526020019081526020016000205410156108fe576040517f1c65903100000000000000000000000000000000000000000000000000000000815260040160405180910390fd5b80600a60003373ffffffffffffffffffffffffffffffffffffffff1673ffffffffffffffffffffffffffffffffffffffff168152602001908152602001600020600082825461094d919061370f565b9250508190555060003373ffffffffffffffffffffffffffffffffffffffff168260405161097a90613774565b60006040518083038185875af1925050503d80600081146109b7576040519150601f19603f3d011682016040523d82523d6000602084013e6109bc565b606091505b5050905080610a00576040517f08c379a00000000000000000000000000000000000000000000000000000000081526004016109f7906137e6565b60405180910390fd5b5050565b60045481565b60007f0000000000000000000000000000000000000000000000000000000000000000905090565b600b6020528060005260406000206000915090508060000154908060010160009054906101000a900460ff16905082565b6000600360009054906101000a900473ffffffffffffffffffffffffffffffffffffffff1673ffffffffffffffffffffffffffffffffffffffff166370a08231336040518263ffffffff1660e01b8152600401610ac091906130a4565b602060405180830381865afa158015610add573d6000803e3d6000fd5b505050506040513d601f19601f82011682018060405250810190610b01919061381b565b1415610b39576040517fd98c2d6800000000000000000000000000000000000000000000000000000000815260040160405180910390fd5b60005b600780549050811015610e14578160078281548110610b5e57610b5d61363f565b5b9060005260206000209060040201600001541415610e01573373ffffffffffffffffffffffffffffffffffffffff1660078281548110610ba157610ba061363f565b5b906000526020600020906004020160010160009054906101000a900473ffffffffffffffffffffffffffffffffffffffff1673ffffffffffffffffffffffffffffffffffffffff1614610c20576040517fff408ef700000000000000000000000000000000000000000000000000000000815260040160405180910390fd5b600060078281548110610c3657610c3561363f565b5b9060005260206000209060040201600201549050610c757f000000000000000000000000000000000000000000000000000000000000000033836122ba565b60076001600780549050610c89919061370f565b81548110610c9a57610c9961363f565b5b906000526020600020906004020160078381548110610cbc57610cbb61363f565b5b9060005260206000209060040201600082015481600001556001820160009054906101000a900473ffffffffffffffffffffffffffffffffffffffff168160010160006101000a81548173ffffffffffffffffffffffffffffffffffffffff021916908373ffffffffffffffffffffffffffffffffffffffff160217905550600282015481600201556003820160009054906101000a900460ff168160030160006101000a81548160ff02191690836001811115610d7d57610d7c6133f1565b5b02179055509050506007805480610d9757610d96613848565b5b60019003818190600052602060002090600402016000808201600090556001820160006101000a81549073ffffffffffffffffffffffffffffffffffffffff021916905560028201600090556003820160006101000a81549060ff02191690555050905550610e14565b8080610e0c9061369d565b915050610b3c565b5050565b6000600a60008373ffffffffffffffffffffffffffffffffffffffff1673ffffffffffffffffffffffffffffffffffffffff168152602001908152602001600020549050919050565b600160009054906101000a900473ffffffffffffffffffffffffffffffffffffffff1673ffffffffffffffffffffffffffffffffffffffff163373ffffffffffffffffffffffffffffffffffffffff1614610ef1576040517f08c379a0000000000000000000000000000000000000000000000000000000008152600401610ee8906138c3565b60405180910390fd5b60008060009054906101000a900473ffffffffffffffffffffffffffffffffffffffff169050336000806101000a81548173ffffffffffffffffffffffffffffffffffffffff021916908373ffffffffffffffffffffffffffffffffffffffff1602179055506000600160006101000a81548173ffffffffffffffffffffffffffffffffffffffff021916908373ffffffffffffffffffffffffffffffffffffffff1602179055503373ffffffffffffffffffffffffffffffffffffffff168173ffffffffffffffffffffffffffffffffffffffff167f8be0079c531659141344cd1fd0a4f28419497f9722a3daafe3b4186f6b6457e060405160405180910390a350565b60008060009054906101000a900473ffffffffffffffffffffffffffffffffffffffff16905090565b60065481565b6060600b6000600c54815260200190815260200160002060020180548060200260200160405190810160405280929190818152602001828054801561108957602002820191906000526020600020905b815481526020019060010190808311611075575b5050505050905090565b600781815481106110a357600080fd5b90600052602060002090600402016000915090508060000154908060010160009054906101000a900473ffffffffffffffffffffffffffffffffffffffff16908060020154908060030160009054906101000a900460ff16905084565b6000600360009054906101000a900473ffffffffffffffffffffffffffffffffffffffff1673ffffffffffffffffffffffffffffffffffffffff166370a08231336040518263ffffffff1660e01b815260040161115d91906130a4565b602060405180830381865afa15801561117a573d6000803e3d6000fd5b505050506040513d601f19601f8201168201806040525081019061119e919061381b565b14156111d6576040517fd98c2d6800000000000000000000000000000000000000000000000000000000815260040160405180910390fd5b600654821015611212576040517fda5871da00000000000000000000000000000000000000000000000000000000815260040160405180910390fd5b81600a60003373ffffffffffffffffffffffffffffffffffffffff1673ffffffffffffffffffffffffffffffffffffffff16815260200190815260200160002054101561128b576040517f1c65903100000000000000000000000000000000000000000000000000000000815260040160405180910390fd5b6112b6337f0000000000000000000000000000000000000000000000000000000000000000846122ba565b6007604051806080016040528060055481526020013373ffffffffffffffffffffffffffffffffffffffff168152602001848152602001836001811115611300576112ff6133f1565b5b81525090806001815401808255809150506001900390600052602060002090600402016000909190919091506000820151816000015560208201518160010160006101000a81548173ffffffffffffffffffffffffffffffffffffffff021916908373ffffffffffffffffffffffffffffffffffffffff1602179055506040820151816002015560608201518160030160006101000a81548160ff021916908360018111156113b2576113b16133f1565b5b021790555050503373ffffffffffffffffffffffffffffffffffffffff166005547fc450c2de8623c81fdc070b3541019888748bfea98249677eb443c6fbe8803a7484846040516114049291906138e3565b60405180910390a36005600081548092919061141f9061369d565b91905055505050565b6000806000905060005b60078054905081101561148e5783600782815481106114545761145361363f565b5b906000526020600020906004020160020154141561147b5781806114779061369d565b9250505b80806114869061369d565b915050611432565b5080915050919050565b6000600980549050905090565b6000600554905090565b34600a60003373ffffffffffffffffffffffffffffffffffffffff1673ffffffffffffffffffffffffffffffffffffffff16815260200190815260200160002060008282546114fe919061390c565b92505081905550565b600360009054906101000a900473ffffffffffffffffffffffffffffffffffffffff1681565b60055481565b6008818154811061154357600080fd5b90600052602060002090600502016000915090508060000154908060010160009054906101000a900473ffffffffffffffffffffffffffffffffffffffff16908060020160009054906101000a900473ffffffffffffffffffffffffffffffffffffffff16908060030154908060040160009054906101000a900460ff16905085565b600a6020528060005260406000206000915090505481565b7f000000000000000000000000000000000000000000000000000000000000000081565b6000600360009054906101000a900473ffffffffffffffffffffffffffffffffffffffff1673ffffffffffffffffffffffffffffffffffffffff166370a08231336040518263ffffffff1660e01b815260040161165f91906130a4565b602060405180830381865afa15801561167c573d6000803e3d6000fd5b505050506040513d601f19601f820116820180604052508101906116a0919061381b565b14156116d8576040517fd98c2d6800000000000000000000000000000000000000000000000000000000815260040160405180910390fd5b600654811015611714576040517fda5871da00000000000000000000000000000000000000000000000000000000815260040160405180910390fd5b80600a60003373ffffffffffffffffffffffffffffffffffffffff1673ffffffffffffffffffffffffffffffffffffffff16815260200190815260200160002054101561178d576040517f1c65903100000000000000000000000000000000000000000000000000000000815260040160405180910390fd5b600080600090505b600780549050811015611da35782600782815481106117b7576117b661363f565b5b9060005260206000209060040201600201541415611cfb5760086040518060a00160405280600784815481106117f0576117ef61363f565b5b90600052602060002090600402016000015481526020016007848154811061181b5761181a61363f565b5b906000526020600020906004020160010160009054906101000a900473ffffffffffffffffffffffffffffffffffffffff1673ffffffffffffffffffffffffffffffffffffffff1681526020013373ffffffffffffffffffffffffffffffffffffffff168152602001600784815481106118985761189761363f565b5b9060005260206000209060040201600201548152602001600784815481106118c3576118c261363f565b5b906000526020600020906004020160030160009054906101000a900460ff1660018111156118f4576118f36133f1565b5b81525090806001815401808255809150506001900390600052602060002090600502016000909190919091506000820151816000015560208201518160010160006101000a81548173ffffffffffffffffffffffffffffffffffffffff021916908373ffffffffffffffffffffffffffffffffffffffff16021790555060408201518160020160006101000a81548173ffffffffffffffffffffffffffffffffffffffff021916908373ffffffffffffffffffffffffffffffffffffffff1602179055506060820151816003015560808201518160040160006101000a81548160ff021916908360018111156119ed576119ec6133f1565b5b0217905550505060078181548110611a0857611a0761363f565b5b9060005260206000209060040201600001549150611a47337f0000000000000000000000000000000000000000000000000000000000000000856122ba565b3373ffffffffffffffffffffffffffffffffffffffff1660078281548110611a7257611a7161363f565b5b906000526020600020906004020160010160009054906101000a900473ffffffffffffffffffffffffffffffffffffffff1673ffffffffffffffffffffffffffffffffffffffff1660078381548110611ace57611acd61363f565b5b9060005260206000209060040201600001547f48911a0c3f3655509de63455f3654f0b35f9b7ce5f52e58909ace726144875c860078581548110611b1557611b1461363f565b5b90600052602060002090600402016002015460078681548110611b3b57611b3a61363f565b5b906000526020600020906004020160030160009054906101000a900460ff16604051611b689291906138e3565b60405180910390a460076001600780549050611b84919061370f565b81548110611b9557611b9461363f565b5b906000526020600020906004020160078281548110611bb757611bb661363f565b5b9060005260206000209060040201600082015481600001556001820160009054906101000a900473ffffffffffffffffffffffffffffffffffffffff168160010160006101000a81548173ffffffffffffffffffffffffffffffffffffffff021916908373ffffffffffffffffffffffffffffffffffffffff160217905550600282015481600201556003820160009054906101000a900460ff168160030160006101000a81548160ff02191690836001811115611c7857611c776133f1565b5b02179055509050506007805480611c9257611c91613848565b5b60019003818190600052602060002090600402016000808201600090556001820160006101000a81549073ffffffffffffffffffffffffffffffffffffffff021916905560028201600090556003820160006101000a81549060ff021916905550509055611da3565b60076001600780549050611d0f919061370f565b81548110611d2057611d1f61363f565b5b90600052602060002090600402016000015460078281548110611d4657611d4561363f565b5b9060005260206000209060040201600001541415611d90576040517f6b651f8100000000000000000000000000000000000000000000000000000000815260040160405180910390fd5b8080611d9b9061369d565b915050611795565b50611dad8161236b565b505050565b611dba6125b2565b611dc381612642565b50565b600080606483611dd69190613991565b90506000600454821115611ded5760009050611df2565b600190505b8092505050919050565b60098181548110611e0c57600080fd5b90600052602060002090600402016000915090508060000154908060010160009054906101000a900473ffffffffffffffffffffffffffffffffffffffff16908060020160009054906101000a900473ffffffffffffffffffffffffffffffffffffffff16908060030154905084565b6001600b600084815260200190815260200160002060010160006101000a81548160ff02191690831515021790555080600b60008481526020019081526020016000206002019080519060200190611ed5929190612f58565b5060008060008060005b60088054905081101561204057600b60008881526020019081526020016000206000015460088281548110611f1757611f1661363f565b5b906000526020600020906005020160000154141561202d5760088181548110611f4357611f4261363f565b5b906000526020600020906005020160040160009054906101000a900460ff16945060088181548110611f7857611f7761363f565b5b906000526020600020906005020160010160009054906101000a900473ffffffffffffffffffffffffffffffffffffffff16935060088181548110611fc057611fbf61363f565b5b906000526020600020906005020160020160009054906101000a900473ffffffffffffffffffffffffffffffffffffffff16925060026008828154811061200a5761200961363f565b5b90600052602060002090600502016003015461202691906139c2565b9150612040565b80806120389061369d565b915050611edf565b5060008060005b7f000000000000000000000000000000000000000000000000000000000000000063ffffffff168110156122af57600061209a89838151811061208d5761208c61363f565b5b6020026020010151611dc6565b9050600060018111156120b0576120af6133f1565b5b8160018111156120c3576120c26133f1565b5b141561212b5783806120d49061369d565b945050600b60008b8152602001908152602001600020600001547f14cb84a5ba040c3c553afe459f31184bf92f9658aa180e5ad749c6853df70b4b600060405161211e91906135df565b60405180910390a2612189565b82806121369061369d565b935050600b60008b8152602001908152602001600020600001547f14cb84a5ba040c3c553afe459f31184bf92f9658aa180e5ad749c6853df70b4b600160405161218091906135df565b60405180910390a25b600384111561221257600090508760018111156121a9576121a86133f1565b5b8160018111156121bc576121bb6133f1565b5b14156121e9576121e4600b60008c81526020019081526020016000206000015488888861276f565b61220c565b61220b600b60008c81526020019081526020016000206000015487898861276f565b5b506122af565b600383111561229b5760019050876001811115612232576122316133f1565b5b816001811115612245576122446133f1565b5b14156122725761226d600b60008c81526020019081526020016000206000015488888861276f565b612295565b612294600b60008c81526020019081526020016000206000015487898861276f565b5b506122af565b5080806122a79061369d565b915050612047565b505050505050505050565b80600a60008573ffffffffffffffffffffffffffffffffffffffff1673ffffffffffffffffffffffffffffffffffffffff1681526020019081526020016000206000828254612309919061370f565b9250508190555080600a60008473ffffffffffffffffffffffffffffffffffffffff1673ffffffffffffffffffffffffffffffffffffffff168152602001908152602001600020600082825461235f919061390c565b92505081905550505050565b6000600260009054906101000a900473ffffffffffffffffffffffffffffffffffffffff1673ffffffffffffffffffffffffffffffffffffffff16635d3b1d307f00000000000000000000000000000000000000000000000000000000000000007f00000000000000000000000000000000000000000000000000000000000000007f00000000000000000000000000000000000000000000000000000000000000007f00000000000000000000000000000000000000000000000000000000000000007f00000000000000000000000000000000000000000000000000000000000000006040518663ffffffff1660e01b8152600401612470959493929190613a94565b6020604051808303816000875af115801561248f573d6000803e3d6000fd5b505050506040513d601f19601f820116820180604052508101906124b3919061381b565b90506040518060600160405280838152602001600015158152602001600067ffffffffffffffff8111156124ea576124e96130d5565b5b6040519080825280602002602001820160405280156125185781602001602082028036833780820191505090505b50815250600b60008381526020019081526020016000206000820151816000015560208201518160010160006101000a81548160ff0219169083151502179055506040820151816002019080519060200190612575929190612f58565b50905050807fb67476d1d38e93caac2ca37113122e613c199269c4cea0d39c67807a6442b40a60405160405180910390a280600c81905550919050565b60008054906101000a900473ffffffffffffffffffffffffffffffffffffffff1673ffffffffffffffffffffffffffffffffffffffff163373ffffffffffffffffffffffffffffffffffffffff1614612640576040517f08c379a000000000000000000000000000000000000000000000000000000000815260040161263790613b33565b60405180910390fd5b565b3373ffffffffffffffffffffffffffffffffffffffff168173ffffffffffffffffffffffffffffffffffffffff1614156126b1576040517f08c379a00000000000000000000000000000000000000000000000000000000081526004016126a890613b9f565b60405180910390fd5b80600160006101000a81548173ffffffffffffffffffffffffffffffffffffffff021916908373ffffffffffffffffffffffffffffffffffffffff1602179055508073ffffffffffffffffffffffffffffffffffffffff1660008054906101000a900473ffffffffffffffffffffffffffffffffffffffff1673ffffffffffffffffffffffffffffffffffffffff167fed8889f560326eb138920d842192f0eb3dd22b4f139c87a2c57538e05bae127860405160405180910390a350565b600960405180608001604052808681526020018573ffffffffffffffffffffffffffffffffffffffff1681526020018473ffffffffffffffffffffffffffffffffffffffff1681526020018381525090806001815401808255809150506001900390600052602060002090600402016000909190919091506000820151816000015560208201518160010160006101000a81548173ffffffffffffffffffffffffffffffffffffffff021916908373ffffffffffffffffffffffffffffffffffffffff16021790555060408201518160020160006101000a81548173ffffffffffffffffffffffffffffffffffffffff021916908373ffffffffffffffffffffffffffffffffffffffff16021790555060608201518160030155505060007f0000000000000000000000000000000000000000000000000000000000000000826128b9919061370f565b90506128e67f000000000000000000000000000000000000000000000000000000000000000085836122ba565b60005b600880549050811015612b4f57856008828154811061290b5761290a61363f565b5b9060005260206000209060050201600001541415612b3c5760086001600880549050612937919061370f565b815481106129485761294761363f565b5b90600052602060002090600502016008828154811061296a5761296961363f565b5b9060005260206000209060050201600082015481600001556001820160009054906101000a900473ffffffffffffffffffffffffffffffffffffffff168160010160006101000a81548173ffffffffffffffffffffffffffffffffffffffff021916908373ffffffffffffffffffffffffffffffffffffffff1602179055506002820160009054906101000a900473ffffffffffffffffffffffffffffffffffffffff168160020160006101000a81548173ffffffffffffffffffffffffffffffffffffffff021916908373ffffffffffffffffffffffffffffffffffffffff160217905550600382015481600301556004820160009054906101000a900460ff168160040160006101000a81548160ff02191690836001811115612a9257612a916133f1565b5b02179055509050506008805480612aac57612aab613848565b5b60019003818190600052602060002090600502016000808201600090556001820160006101000a81549073ffffffffffffffffffffffffffffffffffffffff02191690556002820160006101000a81549073ffffffffffffffffffffffffffffffffffffffff021916905560038201600090556004820160006101000a81549060ff021916905550509055612b4f565b8080612b479061369d565b9150506128e9565b508273ffffffffffffffffffffffffffffffffffffffff168473ffffffffffffffffffffffffffffffffffffffff16867f3c40e3fa45e773a9814996991ed01608da066c59f6a5630c214b1e1151836f4b85604051612bae9190612fdb565b60405180910390a46000600360009054906101000a900473ffffffffffffffffffffffffffffffffffffffff1673ffffffffffffffffffffffffffffffffffffffff16637edd632d866040518263ffffffff1660e01b8152600401612c1391906130a4565b602060405180830381865afa158015612c30573d6000803e3d6000fd5b505050506040513d601f19601f82011682018060405250810190612c54919061381b565b90506000600360009054906101000a900473ffffffffffffffffffffffffffffffffffffffff1673ffffffffffffffffffffffffffffffffffffffff16637edd632d866040518263ffffffff1660e01b8152600401612cb391906130a4565b602060405180830381865afa158015612cd0573d6000803e3d6000fd5b505050506040513d601f19601f82011682018060405250810190612cf4919061381b565b9050600360009054906101000a900473ffffffffffffffffffffffffffffffffffffffff1673ffffffffffffffffffffffffffffffffffffffff16631003c1b5836040518263ffffffff1660e01b8152600401612d519190612fdb565b600060405180830381600087803b158015612d6b57600080fd5b505af1158015612d7f573d6000803e3d6000fd5b50505050600360009054906101000a900473ffffffffffffffffffffffffffffffffffffffff1673ffffffffffffffffffffffffffffffffffffffff16630a11da1e826040518263ffffffff1660e01b8152600401612dde9190612fdb565b600060405180830381600087803b158015612df857600080fd5b505af1158015612e0c573d6000803e3d6000fd5b50505050600360009054906101000a900473ffffffffffffffffffffffffffffffffffffffff1673ffffffffffffffffffffffffffffffffffffffff16634fd10e5183600287612e5c9190613bbf565b6040518363ffffffff1660e01b8152600401612e79929190613c09565b600060405180830381600087803b158015612e9357600080fd5b505af1158015612ea7573d6000803e3d6000fd5b50505050600360009054906101000a900473ffffffffffffffffffffffffffffffffffffffff1673ffffffffffffffffffffffffffffffffffffffff16634fd10e5182600287612ef79190613bbf565b612f0090613c32565b6040518363ffffffff1660e01b8152600401612f1d929190613c09565b600060405180830381600087803b158015612f3757600080fd5b505af1158015612f4b573d6000803e3d6000fd5b5050505050505050505050565b828054828255906000526020600020908101928215612f94579160200282015b82811115612f93578251825591602001919060010190612f78565b5b509050612fa19190612fa5565b5090565b5b80821115612fbe576000816000905550600101612fa6565b5090565b6000819050919050565b612fd581612fc2565b82525050565b6000602082019050612ff06000830184612fcc565b92915050565b6000604051905090565b600080fd5b600080fd5b61301381612fc2565b811461301e57600080fd5b50565b6000813590506130308161300a565b92915050565b60006020828403121561304c5761304b613000565b5b600061305a84828501613021565b91505092915050565b600073ffffffffffffffffffffffffffffffffffffffff82169050919050565b600061308e82613063565b9050919050565b61309e81613083565b82525050565b60006020820190506130b96000830184613095565b92915050565b600080fd5b6000601f19601f8301169050919050565b7f4e487b7100000000000000000000000000000000000000000000000000000000600052604160045260246000fd5b61310d826130c4565b810181811067ffffffffffffffff8211171561312c5761312b6130d5565b5b80604052505050565b600061313f612ff6565b905061314b8282613104565b919050565b600067ffffffffffffffff82111561316b5761316a6130d5565b5b602082029050602081019050919050565b600080fd5b600061319461318f84613150565b613135565b905080838252602082019050602084028301858111156131b7576131b661317c565b5b835b818110156131e057806131cc8882613021565b8452602084019350506020810190506131b9565b5050509392505050565b600082601f8301126131ff576131fe6130bf565b5b813561320f848260208601613181565b91505092915050565b6000806040838503121561322f5761322e613000565b5b600061323d85828601613021565b925050602083013567ffffffffffffffff81111561325e5761325d613005565b5b61326a858286016131ea565b9150509250929050565b60008115159050919050565b61328981613274565b82525050565b60006040820190506132a46000830185612fcc565b6132b16020830184613280565b9392505050565b6132c181613083565b81146132cc57600080fd5b50565b6000813590506132de816132b8565b92915050565b6000602082840312156132fa576132f9613000565b5b6000613308848285016132cf565b91505092915050565b600081519050919050565b600082825260208201905092915050565b6000819050602082019050919050565b61334681612fc2565b82525050565b6000613358838361333d565b60208301905092915050565b6000602082019050919050565b600061337c82613311565b613386818561331c565b93506133918361332d565b8060005b838110156133c25781516133a9888261334c565b97506133b483613364565b925050600181019050613395565b5085935050505092915050565b600060208201905081810360008301526133e98184613371565b905092915050565b7f4e487b7100000000000000000000000000000000000000000000000000000000600052602160045260246000fd5b60028110613431576134306133f1565b5b50565b600081905061344282613420565b919050565b600061345282613434565b9050919050565b61346281613447565b82525050565b600060808201905061347d6000830187612fcc565b61348a6020830186613095565b6134976040830185612fcc565b6134a46060830184613459565b95945050505050565b600281106134ba57600080fd5b50565b6000813590506134cc816134ad565b92915050565b600080604083850312156134e9576134e8613000565b5b60006134f785828601613021565b9250506020613508858286016134bd565b9150509250929050565b6000819050919050565b600061353761353261352d84613063565b613512565b613063565b9050919050565b60006135498261351c565b9050919050565b600061355b8261353e565b9050919050565b61356b81613550565b82525050565b60006020820190506135866000830184613562565b92915050565b600060a0820190506135a16000830188612fcc565b6135ae6020830187613095565b6135bb6040830186613095565b6135c86060830185612fcc565b6135d56080830184613459565b9695505050505050565b60006020820190506135f46000830184613459565b92915050565b600060808201905061360f6000830187612fcc565b61361c6020830186613095565b6136296040830185613095565b6136366060830184612fcc565b95945050505050565b7f4e487b7100000000000000000000000000000000000000000000000000000000600052603260045260246000fd5b7f4e487b7100000000000000000000000000000000000000000000000000000000600052601160045260246000fd5b60006136a882612fc2565b91507fffffffffffffffffffffffffffffffffffffffffffffffffffffffffffffffff8214156136db576136da61366e565b5b600182019050919050565b60006040820190506136fb6000830185613095565b6137086020830184613095565b9392505050565b600061371a82612fc2565b915061372583612fc2565b9250828210156137385761373761366e565b5b828203905092915050565b600081905092915050565b50565b600061375e600083613743565b91506137698261374e565b600082019050919050565b600061377f82613751565b9150819050919050565b600082825260208201905092915050565b7f43616c6c206661696c6564000000000000000000000000000000000000000000600082015250565b60006137d0600b83613789565b91506137db8261379a565b602082019050919050565b600060208201905081810360008301526137ff816137c3565b9050919050565b6000815190506138158161300a565b92915050565b60006020828403121561383157613830613000565b5b600061383f84828501613806565b91505092915050565b7f4e487b7100000000000000000000000000000000000000000000000000000000600052603160045260246000fd5b7f4d7573742062652070726f706f736564206f776e657200000000000000000000600082015250565b60006138ad601683613789565b91506138b882613877565b602082019050919050565b600060208201905081810360008301526138dc816138a0565b9050919050565b60006040820190506138f86000830185612fcc565b6139056020830184613459565b9392505050565b600061391782612fc2565b915061392283612fc2565b9250827fffffffffffffffffffffffffffffffffffffffffffffffffffffffffffffffff038211156139575761395661366e565b5b828201905092915050565b7f4e487b7100000000000000000000000000000000000000000000000000000000600052601260045260246000fd5b600061399c82612fc2565b91506139a783612fc2565b9250826139b7576139b6613962565b5b828206905092915050565b60006139cd82612fc2565b91506139d883612fc2565b9250817fffffffffffffffffffffffffffffffffffffffffffffffffffffffffffffffff0483118215151615613a1157613a1061366e565b5b828202905092915050565b6000819050919050565b613a2f81613a1c565b82525050565b600067ffffffffffffffff82169050919050565b613a5281613a35565b82525050565b600061ffff82169050919050565b613a6f81613a58565b82525050565b600063ffffffff82169050919050565b613a8e81613a75565b82525050565b600060a082019050613aa96000830188613a26565b613ab66020830187613a49565b613ac36040830186613a66565b613ad06060830185613a85565b613add6080830184613a85565b9695505050505050565b7f4f6e6c792063616c6c61626c65206279206f776e657200000000000000000000600082015250565b6000613b1d601683613789565b9150613b2882613ae7565b602082019050919050565b60006020820190508181036000830152613b4c81613b10565b9050919050565b7f43616e6e6f74207472616e7366657220746f2073656c66000000000000000000600082015250565b6000613b89601783613789565b9150613b9482613b53565b602082019050919050565b60006020820190508181036000830152613bb881613b7c565b9050919050565b6000613bca82612fc2565b9150613bd583612fc2565b925082613be557613be4613962565b5b828204905092915050565b6000819050919050565b613c0381613bf0565b82525050565b6000604082019050613c1e6000830185612fcc565b613c2b6020830184613bfa565b9392505050565b6000613c3d82613bf0565b91507f8000000000000000000000000000000000000000000000000000000000000000821415613c7057613c6f61366e565b5b81600003905091905056fea264697066735822122042f0f8012441235212099884a660bbd961fc86d3c86196be48e3f19c955b396464736f6c634300080a0033",
  "devdoc": {
    "author": "Jaka Potokar",
    "details": "This implements the Chainlink VRF Version 2 MY NOTICE: CORRECT THE TRANSFER FUNCTION BECAUSE IT CAN GET HACKED, BECAUSE CALLER DOESN'T NEED TO BE REQUIRED",
    "kind": "dev",
    "methods": {},
    "title": "A Coin Flip mini game",
    "version": 1
  },
  "userdoc": {
    "kind": "user",
    "methods": {
      "acceptOwnership()": {
        "notice": "Allows an ownership transfer to be completed by the recipient."
      },
      "owner()": {
        "notice": "Get the current owner"
      },
      "transferOwnership(address)": {
        "notice": "Allows an owner to begin transferring ownership to a new address, pending."
      }
    },
    "notice": "This contract make a coin flip mini game platform",
    "version": 1
  },
  "storageLayout": {
    "storage": [
      {
        "astId": 27,
        "contract": "contracts/Gameplay.sol:Gameplay",
        "label": "s_owner",
        "offset": 0,
        "slot": "0",
        "type": "t_address"
      },
      {
        "astId": 29,
        "contract": "contracts/Gameplay.sol:Gameplay",
        "label": "s_pendingOwner",
        "offset": 0,
        "slot": "1",
        "type": "t_address"
      },
      {
        "astId": 4722,
        "contract": "contracts/Gameplay.sol:Gameplay",
        "label": "COORDINATOR",
        "offset": 0,
        "slot": "2",
        "type": "t_contract(VRFCoordinatorV2Interface)446"
      },
      {
        "astId": 4735,
        "contract": "contracts/Gameplay.sol:Gameplay",
        "label": "gamecoins",
        "offset": 0,
        "slot": "3",
        "type": "t_contract(GameCoins)4642"
      },
      {
        "astId": 4813,
        "contract": "contracts/Gameplay.sol:Gameplay",
        "label": "probability",
        "offset": 0,
        "slot": "4",
        "type": "t_uint256"
      },
      {
        "astId": 4817,
        "contract": "contracts/Gameplay.sol:Gameplay",
        "label": "gameId",
        "offset": 0,
        "slot": "5",
        "type": "t_uint256"
      },
      {
        "astId": 4822,
        "contract": "contracts/Gameplay.sol:Gameplay",
        "label": "minBet",
        "offset": 0,
        "slot": "6",
        "type": "t_uint256"
      },
      {
        "astId": 4857,
        "contract": "contracts/Gameplay.sol:Gameplay",
        "label": "availableGames",
        "offset": 0,
        "slot": "7",
        "type": "t_array(t_struct(availableGame)4832_storage)dyn_storage"
      },
      {
        "astId": 4861,
        "contract": "contracts/Gameplay.sol:Gameplay",
        "label": "gamesInProgress",
        "offset": 0,
        "slot": "8",
        "type": "t_array(t_struct(gameInProgress)4844_storage)dyn_storage"
      },
      {
        "astId": 4865,
        "contract": "contracts/Gameplay.sol:Gameplay",
        "label": "finishedGames",
        "offset": 0,
        "slot": "9",
        "type": "t_array(t_struct(finishedGame)4853_storage)dyn_storage"
      },
      {
        "astId": 4869,
        "contract": "contracts/Gameplay.sol:Gameplay",
        "label": "balance",
        "offset": 0,
        "slot": "10",
        "type": "t_mapping(t_address,t_uint256)"
      },
      {
        "astId": 5371,
        "contract": "contracts/Gameplay.sol:Gameplay",
        "label": "wordRequests",
        "offset": 0,
        "slot": "11",
        "type": "t_mapping(t_uint256,t_struct(subscriptionRequest)5366_storage)"
      },
      {
        "astId": 5808,
        "contract": "contracts/Gameplay.sol:Gameplay",
        "label": "lastRequestId",
        "offset": 0,
        "slot": "12",
        "type": "t_uint256"
      }
    ],
    "types": {
      "t_address": {
        "encoding": "inplace",
        "label": "address",
        "numberOfBytes": "20"
      },
      "t_array(t_struct(availableGame)4832_storage)dyn_storage": {
        "base": "t_struct(availableGame)4832_storage",
        "encoding": "dynamic_array",
        "label": "struct Gameplay.availableGame[]",
        "numberOfBytes": "32"
      },
      "t_array(t_struct(finishedGame)4853_storage)dyn_storage": {
        "base": "t_struct(finishedGame)4853_storage",
        "encoding": "dynamic_array",
        "label": "struct Gameplay.finishedGame[]",
        "numberOfBytes": "32"
      },
      "t_array(t_struct(gameInProgress)4844_storage)dyn_storage": {
        "base": "t_struct(gameInProgress)4844_storage",
        "encoding": "dynamic_array",
        "label": "struct Gameplay.gameInProgress[]",
        "numberOfBytes": "32"
      },
      "t_array(t_uint256)dyn_storage": {
        "base": "t_uint256",
        "encoding": "dynamic_array",
        "label": "uint256[]",
        "numberOfBytes": "32"
      },
      "t_bool": {
        "encoding": "inplace",
        "label": "bool",
        "numberOfBytes": "1"
      },
      "t_contract(GameCoins)4642": {
        "encoding": "inplace",
        "label": "contract GameCoins",
        "numberOfBytes": "20"
      },
      "t_contract(VRFCoordinatorV2Interface)446": {
        "encoding": "inplace",
        "label": "contract VRFCoordinatorV2Interface",
        "numberOfBytes": "20"
      },
      "t_enum(Symbol)4810": {
        "encoding": "inplace",
        "label": "enum Gameplay.Symbol",
        "numberOfBytes": "1"
      },
      "t_mapping(t_address,t_uint256)": {
        "encoding": "mapping",
        "key": "t_address",
        "label": "mapping(address => uint256)",
        "numberOfBytes": "32",
        "value": "t_uint256"
      },
      "t_mapping(t_uint256,t_struct(subscriptionRequest)5366_storage)": {
        "encoding": "mapping",
        "key": "t_uint256",
        "label": "mapping(uint256 => struct Gameplay.subscriptionRequest)",
        "numberOfBytes": "32",
        "value": "t_struct(subscriptionRequest)5366_storage"
      },
      "t_struct(availableGame)4832_storage": {
        "encoding": "inplace",
        "label": "struct Gameplay.availableGame",
        "members": [
          {
            "astId": 4824,
            "contract": "contracts/Gameplay.sol:Gameplay",
            "label": "_gameId",
            "offset": 0,
            "slot": "0",
            "type": "t_uint256"
          },
          {
            "astId": 4826,
            "contract": "contracts/Gameplay.sol:Gameplay",
            "label": "_challenger",
            "offset": 0,
            "slot": "1",
            "type": "t_address"
          },
          {
            "astId": 4828,
            "contract": "contracts/Gameplay.sol:Gameplay",
            "label": "_amount",
            "offset": 0,
            "slot": "2",
            "type": "t_uint256"
          },
          {
            "astId": 4831,
            "contract": "contracts/Gameplay.sol:Gameplay",
            "label": "_symbol",
            "offset": 0,
            "slot": "3",
            "type": "t_enum(Symbol)4810"
          }
        ],
        "numberOfBytes": "128"
      },
      "t_struct(finishedGame)4853_storage": {
        "encoding": "inplace",
        "label": "struct Gameplay.finishedGame",
        "members": [
          {
            "astId": 4846,
            "contract": "contracts/Gameplay.sol:Gameplay",
            "label": "_gameId",
            "offset": 0,
            "slot": "0",
            "type": "t_uint256"
          },
          {
            "astId": 4848,
            "contract": "contracts/Gameplay.sol:Gameplay",
            "label": "_winner",
            "offset": 0,
            "slot": "1",
            "type": "t_address"
          },
          {
            "astId": 4850,
            "contract": "contracts/Gameplay.sol:Gameplay",
            "label": "_loser",
            "offset": 0,
            "slot": "2",
            "type": "t_address"
          },
          {
            "astId": 4852,
            "contract": "contracts/Gameplay.sol:Gameplay",
            "label": "_amount",
            "offset": 0,
            "slot": "3",
            "type": "t_uint256"
          }
        ],
        "numberOfBytes": "128"
      },
      "t_struct(gameInProgress)4844_storage": {
        "encoding": "inplace",
        "label": "struct Gameplay.gameInProgress",
        "members": [
          {
            "astId": 4834,
            "contract": "contracts/Gameplay.sol:Gameplay",
            "label": "_gameId",
            "offset": 0,
            "slot": "0",
            "type": "t_uint256"
          },
          {
            "astId": 4836,
            "contract": "contracts/Gameplay.sol:Gameplay",
            "label": "_challenger",
            "offset": 0,
            "slot": "1",
            "type": "t_address"
          },
          {
            "astId": 4838,
            "contract": "contracts/Gameplay.sol:Gameplay",
            "label": "_joiner",
            "offset": 0,
            "slot": "2",
            "type": "t_address"
          },
          {
            "astId": 4840,
            "contract": "contracts/Gameplay.sol:Gameplay",
            "label": "_amount",
            "offset": 0,
            "slot": "3",
            "type": "t_uint256"
          },
          {
            "astId": 4843,
            "contract": "contracts/Gameplay.sol:Gameplay",
            "label": "_symbol",
            "offset": 0,
            "slot": "4",
            "type": "t_enum(Symbol)4810"
          }
        ],
        "numberOfBytes": "160"
      },
      "t_struct(subscriptionRequest)5366_storage": {
        "encoding": "inplace",
        "label": "struct Gameplay.subscriptionRequest",
        "members": [
          {
            "astId": 5360,
            "contract": "contracts/Gameplay.sol:Gameplay",
            "label": "_gameId",
            "offset": 0,
            "slot": "0",
            "type": "t_uint256"
          },
          {
            "astId": 5362,
            "contract": "contracts/Gameplay.sol:Gameplay",
            "label": "_fulfilled",
            "offset": 0,
            "slot": "1",
            "type": "t_bool"
          },
          {
            "astId": 5365,
            "contract": "contracts/Gameplay.sol:Gameplay",
            "label": "randomValues",
            "offset": 0,
            "slot": "2",
            "type": "t_array(t_uint256)dyn_storage"
          }
        ],
        "numberOfBytes": "96"
      },
      "t_uint256": {
        "encoding": "inplace",
        "label": "uint256",
        "numberOfBytes": "32"
      }
    }
  }
}